:100000000C94B3010C94DB010C94DB010C94DB0128
:100010000C94DB010C94DB010C94DB010C94DB01F0
:100020000C94DB010C94DB010C945B260C94E2260F
:100030000C94DB010C94DB010C94DB010C94DB01D0
:100040000C94DB010C94DB010C94DB010C94DB01C0
:100050000C94DB010C94DB010C94DB010C947A1CF6
:100060000C94DB010C94E41F0C9432200C94DB0103
:100070000C94DB010C94DB010C94DB010C94DB0190
:100080000C94DB010C94DB010C94DB010C94DB0180
:100090000C9409170C94DB010C94B8180C94DB0138
:1000A0000C94DB010C94DB010C94DB01084AD73B78
:1000B0003BCE016E84BCBFFDC12F3D6C74319ABD37
:1000C00056833DDA3D00C77F11BED9E4BB4C3E915B
:1000D0006BAAAABE000000803F4572726F72207248
:1000E000656164696E672073656E736F7200693253
:1000F00063526561642074696D656F75740069325F
:100100006352656164206661696C65643A200069C8
:1001100032635772697465206661696C65643A2060
:100120000000000000240027002A002D00300000FD
:10013000000000250028002B002E003100000000E8
:10014000002300260029002C002F000404040404CE
:10015000030405020202020403020202020606066A
:10016000060606040402020204040802011040808C
:10017000401020408040800802040180402010028E
:10018000011080102040400000000200080E000016
:10019000030401000B00000000000000000000004C
:1001A0000000000000070605040100080A0B0C0D02
:1001B00009080B000202020100090400000102020A
:1001C0000000052400100105240101010424020699
:1001D0000524060001070581031000400904010001
:1001E000020A000000070502024000000705830222
:1001F00040000004030904220341007200640075FA
:100200000069006E006F0020004D006900630072FD
:10021000006F0020002000200018034100720064DD
:1002200000750069006E006F0020004C004C004318
:10023000001201000200000040412337800001014C
:100240000200011201000202000040412337800039
:10025000010102000100C18081C105010902A10163
:100260000901A100850105091901290315002501CE
:10027000950375018102950175058103050109301A
:10028000093109381581257F750895038106C0C09D
:1002900005010906A1018502050719E029E71500F6
:1002A0002501750195088102950175088103950660
:1002B0007508150025650507190029658100C00925
:1002C0000402000103000000092101010001226570
:1002D000000705840340000100000000000000004A
:1002E0002A2B280000000000000000000000000091
:1002F00000000000000000002C9EB4A0A1A2A434C5
:10030000A6A7A5AE362D3738271E1F20212223246D
:100310002526B333B62EB7B89F8485868788898A09
:100320008B8C8D8E8F909192939495969798999AA5
:100330009B9C9D2F3130A3AD350405060708090AA3
:100340000B0C0D0E0F101112131415161718191A85
:100350001B1C1DAFB1B0B5004507AD15181F9E2180
:1003600095256C2B3E0711241FBECFEFDAE0DEBFD0
:10037000CDBF12E0A0E0B1E0EEEAF0E602C00590E9
:100380000D92AC30B107D9F715E0ACE0B2E001C096
:100390001D92A138B107E1F713E0C4E6D3E004C031
:1003A0002297FE010E940F30C835D107C9F70E947D
:1003B000F4210C944A300C9400001F93FC019927FF
:1003C0008827BC01E89411911032E9F3193010F03C
:1003D0001E30C8F31B3251F01D3249F4689406C038
:1003E0000E941402610F711D811D911D1191105306
:1003F0001A30B0F33EF490958095709561957F4FDB
:100400008F4F9F4F1F910895FB01DC0102C00190A7
:100410000D9241505040D8F70895FB01DC01019046
:100420000D920020E1F70895592F482F372F262FDE
:10043000660F771F881F991F660F771F881F991FE8
:10044000620F731F841F951F660F771F881F991FE8
:100450000895AEE0B0E0EFE2F2E00C9421300D89B7
:100460001E8986E08C831A8309838FEF9FE79E8322
:100470008D839E01275E3F4FCE0101966F89788D57
:10048000A9010E944D022F813885020F131FF80128
:1004900010822E96E4E00C943D30ABE0B0E0E3E552
:1004A000F2E00C9413303C012B015A01FC0117823D
:1004B0001682838181FD03C06FEF7FEFC6C19AE092
:1004C000892E1E010894211C311CF3012381F201A5
:1004D00023FD859123FF81912F01882309F4B2C167
:1004E000853239F423FD859123FF81912F018532D7
:1004F00029F490E0B3010E944004E7CF982FFF2435
:10050000EE249924FFE1FF15D0F09B3269F09C3274
:1005100028F4903259F0933291F40EC09D3249F094
:10052000903369F441E024C052E0F52A84E0F82ACF
:1005300028C098E0F92A25C0E0E1FE2A22C0F7FC95
:1005400029C0892F80538A3070F4F6FE05C0989C2C
:10055000902C1124980E15C0E89CE02C1124E80E74
:10056000F0E2FF2A0EC09E3229F4F6FC6BC140E493
:10057000F42A07C09C3619F450E8F52A02C09836D0
:1005800049F4F20123FD959123FF91912F019923C5
:1005900009F0B8CF892F8554833018F0805283300A
:1005A00038F444E050E0A40EB51E5FE359830FC059
:1005B000933631F0933779F0933509F056C020C067
:1005C000F5018081898342E050E0A40EB51E6101EF
:1005D00001E010E012C0F501C080D180F6FC03C03C
:1005E0006FEF7FEF02C0692D70E042E050E0A40E93
:1005F000B51EC6010E9435048C015FE7F52214C0C8
:10060000F501C080D180F6FC03C06FEF7FEF02C020
:10061000692D70E042E050E0A40EB51EC6010E94B4
:100620002A048C0150E8F52AF3FE07C01AC080E2C4
:1006300090E0B3010E944004EA948E2D90E00817E8
:100640001907A8F30EC0F601F7FC8591F7FE81911A
:100650006F0190E0B3010E944004E110EA94015060
:1006600010400115110579F7EAC0943611F099365A
:1006700069F5F7FE08C0F50120813181428153817F
:1006800084E090E00AC0F501808191819C014427BB
:1006900037FD4095542F82E090E0A80EB91E9FE6EA
:1006A000F92257FF09C050954095309521953F4F4D
:1006B0004F4F5F4FE0E8FE2ACA01B901A1012AE0CD
:1006C00030E00E946C04D82ED21840C0953729F42F
:1006D0001F2D1F7E2AE030E01DC01F2D197F9F3681
:1006E00061F0903720F4983509F0ACC00FC0903716
:1006F00039F0983709F0A6C004C028E030E00AC0FD
:10070000106114FD146020E130E004C014FD166097
:1007100020E132E017FF08C0F5016081718182811C
:10072000938144E050E008C0F50180819181BC01D3
:1007300080E090E042E050E0A40EB51EA1010E94CE
:100740006C04D82ED2188FE7F82EF122F6FE0BC0DB
:100750005EEFF522D91438F4F4FE07C0F2FC05C0B0
:100760008FEEF82202C01D2D01C0192DF4FE0DC020
:10077000FE01ED0DF11D8081803319F499EEF9220F
:1007800008C01F5FF2FE05C003C08F2D867809F0F8
:100790001F5F0F2DF3FC14C0F0FE0FC01E1510F0EC
:1007A0009D2C0BC09D2C9E0C911A1E2D06C080E224
:1007B00090E0B3010E9440041F5F1E15C0F304C007
:1007C0001E1510F4E11A01C0EE2404FF0FC080E3EF
:1007D00090E0B3010E94400402FF1DC001FD03C070
:1007E00088E790E00EC088E590E00BC0802F867807
:1007F00091F001FF02C08BE201C080E2F7FC8DE2C4
:1008000090E0B3010E94400406C080E390E0B30191
:100810000E9440049A94D914C0F3DA94F101ED0DCA
:10082000F11D808190E0B3010E944004DD20A9F712
:1008300006C080E290E0B3010E944004EA94EE20FA
:10084000C1F743CEF30166817781CB012B96E2E1BC
:100850000C942F30FC010590615070400110D8F7C6
:10086000809590958E0F9F1F0895FC0161507040F8
:1008700001900110D8F7809590958E0F9F1F0895D5
:100880000F931F93CF93DF938C01EB018B8181FF3B
:100890001BC082FF0DC02E813F818C819D81281756
:1008A000390764F4E881F9810193F983E88306C08C
:1008B000E885F985802F0995892B31F48E819F81F8
:1008C00001969F838E8302C00FEF1FEFC801DF9157
:1008D000CF911F910F910895FA01AA27283051F165
:1008E000203181F1E8946F936E7F6E5F7F4F8F4F61
:1008F0009F4FAF4FB1E03ED0B4E03CD0670F781FC0
:10090000891F9A1FA11D680F791F8A1F911DA11DA4
:100910006A0F711D811D911DA11D20D009F46894DD
:100920003F912AE0269F11243019305D3193DEF685
:10093000CF010895462F4770405D4193B3E00FD03B
:10094000C9F7F6CF462F4F70405D4A3318F0495D26
:1009500031FD4052419302D0A9F7EACFB4E0A69509
:100960009795879577956795BA95C9F7009761052B
:10097000710508959B01AC010A2E06945795479581
:1009800037952795BA95C9F7620F731F841F951F76
:10099000A01D0895EF92FF920F931F936091440260
:1009A00070914502882777FD8095982F0E94DB2D56
:1009B00020911602309117024091180250911902AD
:1009C0000E94BB2E20E030E44CE156E40E94402D12
:1009D0007B018C016091420270914302882777FD70
:1009E0008095982F0E94DB2D9B01AC01C801B701B7
:1009F0000E94762C6093160270931702809318025F
:100A0000909319026091480270914902882777FDFE
:100A10008095982F0E94DB2D20911A0230911B02A5
:100A200040911C0250911D020E94BB2E20E030E438
:100A30004CE156E40E94402D7B018C0160914602FE
:100A400070914702882777FD8095982F0E94DB2DB3
:100A50009B01AC01C801B7010E94762C60931A0279
:100A600070931B0280931C0290931D0260914C02B4
:100A700070914D02882777FD8095982F0E94DB2D7D
:100A800020911E0230911F024091200250912102BC
:100A90000E94BB2E20E030E44CE156E40E94402D41
:100AA0007B018C0160914A0270914B02882777FD8F
:100AB0008095982F0E94DB2D9B01AC01C801B701E6
:100AC0000E94762C60931E0270931F028093200276
:100AD000909321026091500270915102882777FD16
:100AE0008095982F0E94DB2D2091220230912302C5
:100AF00040912402509125020E94BB2E20E030E458
:100B00004CE156E40E94402D7B018C0160914E0225
:100B100070914F02882777FD8095982F0E94DB2DDA
:100B20009B01AC01C801B7010E94762C60932202A0
:100B300070932302809324029093250260915402C3
:100B400070915502882777FD8095982F0E94DB2DA4
:100B500020912602309127024091280250912902CB
:100B60000E94BB2E20E030E44CE156E40E94402D70
:100B70007B018C016091520270915302882777FDAE
:100B80008095982F0E94DB2D9B01AC01C801B70115
:100B90000E94762C6093260270932702809328028D
:100BA000909329026091580270915902882777FD2D
:100BB0008095982F0E94DB2D20912A0230912B02E4
:100BC00040912C0250912D020E94BB2E20E030E477
:100BD0004CE156E40E94402D7B018C01609156024D
:100BE00070915702882777FD8095982F0E94DB2D02
:100BF0009B01AC01C801B7010E94762C60932A02C8
:100C000070932B0280932C0290932D021F910F91D1
:100C1000FF90EF9008958F929F92AF92BF92CF92E4
:100C2000DF92EF92FF920F931F935B016C01E090B4
:100C3000CC02F090CD026091C8027091C9028091FF
:100C4000CA029091CB0220E030E040E251E40E94E1
:100C5000BB2E8701000F111F000F111F00561D4FE3
:100C6000D8012D913D914D915C910E94752CA6016A
:100C700095010E94762C20E030E040E251E40E9491
:100C8000402DFB01982E892EAC01CB01DA01809317
:100C9000C8029093C902A093CA02B093CB02D801B4
:100CA000AD92BD92CD92DC9213970894E11CF11C99
:100CB000F092CD02E092CC02BBE0EB16F10424F0FE
:100CC0001092CD021092CC02492D582DBF01CA01BD
:100CD0001F910F91FF90EF90DF90CF90BF90AF905A
:100CE0009F908F9008954F925F926F927F928F9214
:100CF0009F92AF92BF92CF92DF92EF92FF920F93AB
:100D00001F93CF93DF934090EA025090EB02E09064
:100D10006E02F0906F020091700210917102C80192
:100D2000B70120E030E040E050E00E943C2D8823F5
:100D300054F4C801B70120E030E044EB53E40E94D2
:100D4000762C7B018C01F201EE0FFF1FEE0FFF1FCF
:100D5000EA52FD4FE082F18202831383C6EDD2E0B6
:100D600037014801A880B980CA80DB80C401B30183
:100D7000A60195010E943C2D88231CF435014601F3
:100D800008C0C801B701A60195010E94B02E18162F
:100D900014F057016801249682E0CA3ED80719F082
:100DA00086017501DFCFC501D6018093D2029093F1
:100DB000D302A093D402B093D502C301D40180938F
:100DC000CE029093CF02A093D002B093D102C4017F
:100DD000B301A60195010E94752C7B018C0120E0D6
:100DE00030E040E050E00E94B02E181624F017FBCF
:100DF000109517F91095E0927202F0927302009329
:100E0000740210937502C20101969093EB028093D5
:100E1000EA02059724F01092EB021092EA02DF91A9
:100E2000CF911F910F91FF90EF90DF90CF90BF90E7
:100E3000AF909F908F907F906F905F904F900895AC
:100E40008130910589F46F5F7F4FB9F48CE092E0B7
:100E500061E140E451E00E94321A80E992E060E0F2
:100E600071E00E94E5280895892B39F46F5F7F4F68
:100E700021F480E992E00E941629089580E090E034
:100E80006FEF7FEF0E942007089581E090E06FEF01
:100E90007FEF0E94200708958CE092E00E942B1CB7
:100EA000882329F08FEA94E061E071E004C08FEAC2
:100EB00094E06CE071E00E9486240895CF92DF9266
:100EC000EF92FF920F931F93DF93CF93CDB7DEB7CF
:100ED00060970FB6F894DEBF0FBECDBF7B018C01CB
:100EE0009A01FE01319641E1C42ED12CCC0EDD1EBB
:100EF000D9018D919C9160E071E00E94BD2F6083CB
:100F0000D9018D919D919D0160E071E00E94BD2FFE
:100F100081833296EC15FD0559F78CE092E00E9432
:100F2000821A8823D1F78CE092E0B801A7019E01D4
:100F30002F5F3F4F00E110E00E94F61A60960FB657
:100F4000F894DEBF0FBECDBFCF91DF911F910F91FF
:100F5000FF90EF90DF90CF9008950F931F93DF9352
:100F6000CF93CDB7DEB760970FB6F894DEBF0FBE54
:100F7000CDBF8E010F5F1F4F80E1F80111928A955E
:100F8000E9F7609116027091170280911802909112
:100F900019020E94A82D7A83698360911A027091C8
:100FA0001B0280911C0290911D020E94A82D7C833F
:100FB0006B8360911E0270911F02809120029091BC
:100FC00021020E94A82D7E836D8360912202709180
:100FD000230280912402909125020E94A82D7887F7
:100FE0006F83609126027091270280912802909170
:100FF00029020E94A82D7A87698760912A02709140
:101000002B0280912C0290912D020E94A82D7C87AA
:101010006B870E94C21CBC01882799277E876D8739
:101020000E94C21C788B6F8760911102709112022E
:101030008091130290911402A8010E945E07809192
:10104000110290911202A0911302B09114024096E5
:10105000A11DB11D8093110290931202A09313025F
:10106000B093140260960FB6F894DEBF0FBECDBFEA
:10107000CF91DF911F910F9108958F929F92AF9220
:10108000BF92CF92DF92EF92FF920F931F9388242B
:1010900099245401CC24DD2476018FEA94E069E19F
:1010A00071E00E9489238FEA94E0B501A4012AE04F
:1010B00030E00E9475238CE092E00E94821A88231F
:1010C000D1F78CE092E0B701A6010E94C91B182F4E
:1010D000B701A6014F5F5F4F6F4F7F4F8CE092E0EB
:1010E0000E94C91B082FB701A6014E5F5F4F6F4FCB
:1010F0007F4F8CE092E00E94C91B90E01F3F09F4F3
:1011000091E020E00F3F09F421E09223292F30E005
:1011100040E050E08F3F11F441E050E024233523BC
:10112000232B01F58CE092E0B501A4010E94B51AD1
:1011300081E090E8A0E0B0E0880E991EAA1EBB1ED8
:1011400080E090E8A0E0B0E4C80ED91EEA1EFB1EC5
:1011500092EA891697E0990691EDA90693E0B906FF
:1011600009F09BCF109211021092120210921302FA
:10117000109214021F910F91FF90EF90DF90CF908B
:10118000BF90AF909F908F9008958FEA94E060E3B6
:1011900071E00E9489238CE092E00E94E91A0CC061
:1011A0008FEA94E065E471E00E94892360E971E0D0
:1011B00080E090E00E94F61C8CE092E00E94821A8F
:1011C000882371F78FEA94E067E471E00E94862437
:1011D00008958F929F92AF92BF92CF92DF92EF923B
:1011E000FF920F931F93DF93CF93CDB7DEB7C05419
:1011F000D0400FB6F894DEBF0FBECDBFAB01BC012F
:10120000ADB6BEB68DB79EB7805091400FB6F8947C
:101210009EBF0FBE8DBFEDB6FEB60894E11CF11C5B
:101220008CE092E0970100E011E00E94741B10E056
:101230006E010894C11CD11C9CE4892E91E0992E6A
:10124000C2C0DB0184E0AA0FBB1F8A95E1F7EDB7AE
:10125000FEB774970FB6F894FEBF0FBEEDBF4DB743
:101260005EB74F5F5F4FD282C182FA019382828262
:10127000AE0DBF1D11962C911197332727FD309588
:101280008C91992787FD9095982F8827280F391FD3
:1012900035832483FD018281992787FD9095982FBE
:1012A000882713962C911397332727FD3095820FAB
:1012B000931FFA019783868334E0660F771F3A9570
:1012C000E1F7FD018481992787FD9095982F882764
:1012D00015962C911597332727FD3095820F931F74
:1012E000FA019187808716968C911697992787FD2A
:1012F0009095982F882717962C911797332727FDBD
:101300003095820F931F938782876E0D7F1DFB019F
:101310008085992787FD9095982F882719962C917D
:101320001997332727FD3095820F931FFA01958770
:1013300084871A968C911A97992787FD9095982FF4
:1013400088271B962C911B97332727FD3095820FFA
:10135000931F978786871C968C911C97992787FDEA
:101360009095982F88271D962C911D97332727FD40
:101370003095820F931F918B808B1E968C911E97B8
:10138000992787FD9095982F88271F962C913327B2
:1013900027FD3095820F931F938B828B0E94290229
:1013A0008DB79EB744960FB6F8949EBF0FBE8DBF03
:1013B0008FEA94E0B6010E94862485E495E0B601A8
:1013C0000E9486241F5F612F70E0103109F039CF31
:1013D0000FB6F894BEBE0FBEADBEC05CDF4F0FB6F9
:1013E000F894DEBF0FBECDBFCF91DF911F910F915B
:1013F000FF90EF90DF90CF90BF90AF909F908F9035
:101400000895EF92FF920F931F93DF93CF93CDB781
:10141000DEB768970FB6F894DEBF0FBECDBF00E011
:1014200010E07E010894E11CF11C81E694E0B80113
:101430000E94731CF701E00FF11F80830F5F1F4FA5
:101440000831110591F7F701A2E4B2E0AE01475E61
:101450005F4F8081992787FD9095982F882721815C
:10146000332727FD3095820F931F8D939D933296DE
:10147000E417F50771F768960FB6F894DEBF0FBE54
:10148000CDBFCF91DF911F910F91FF90EF90089505
:10149000EF92FF920F931F9382309105F1F083300A
:1014A000910524F4019709F0A1C008C0833091058B
:1014B00009F450C0049709F099C089C08091A00137
:1014C0006FEF40E00E94BE198091A20160E040E011
:1014D0000E94BE198091A4013BC08091A4016FEFCE
:1014E00040E00E94BE198091A2016FEF40E00E948F
:1014F000BE1960918402709185028091860290915C
:101500008702209188023091890240918A0250918D
:101510008B020E94752C7B018C0120E030E046E1BB
:1015200054E40E943C2D88233CF48091A00160E0AB
:1015300040E00E94BE196CC0C801B70120E030E055
:1015400046E954E40E943C2D8823A4F58091A00133
:101550006FEFEECF609184027091850280918602D8
:1015600090918702209188023091890240918A02ED
:1015700050918B020E94752C7B018C0120E030E0A1
:1015800048E454E40E943C2D882354F48091A20145
:1015900060E540E00E94251A8091A00160E52FC01F
:1015A000C801B70120E030E048EC54E40E943C2D33
:1015B0008823E4F00E94C21C0E94D92D6093880207
:1015C0007093890280938A0290938B0221C080914C
:1015D000A00160E040E00E94BE198091A20160E09D
:1015E00040E00E94BE198091A401A1CF8091A20188
:1015F00064E640E00E94251A8091A00164E640E084
:101600000E94251A8091A40164E640E00E94251AF8
:101610001F910F91FF90EF900895BF92CF92DF92AC
:10162000EF92FF920F931F93CF93DF93182F062F04
:10163000F72EB42E82E393E068E60E94691582E3F8
:1016400093E0612F0E94F51582E393E060E00E9431
:101650002516C82E882371F08FEA94E06EEF70E0B3
:101660000E9431228FEA94E06C2D4AE050E00E9403
:1016700017233CC082E393E068E64B2D21E00E94F3
:101680003816802F9F2D9C01E901DD242DC082E3B7
:1016900093E00E947D15892BB1F40E94D01C7B0140
:1016A0008C010E94D01C6E197F09800B910B685E23
:1016B00073408040904028F582E393E00E947D15BE
:1016C000892BF9F4EECF82E393E00E94861588839C
:1016D000D394219609C08FEA94E06EEE70E00E94E8
:1016E000742245E0C42E02C0DB1488F28C2DDF91F9
:1016F000CF911F910F91FF90EF90DF90CF90BF900F
:10170000089582E393E00E947D15892BE1F6E3CFF3
:101710008BE36EE272E04EE00E940D0B8823C1F76E
:1017200070912E0260E020912F0230E0622B732B2B
:10173000882777FD8095982F0E94DB2D60931A02F1
:1017400070931B0280931C0290931D0270913002D3
:1017500060E02091310230E0622B732B882777FD07
:101760008095982F0E94DB2D6093160270931702CC
:1017700080931802909319027091320260E02091D8
:10178000330230E0622B732B709561957F4F882771
:1017900077FD8095982F0E94DB2D60931E02709339
:1017A0001F0280932002909321029091340280E0E6
:1017B0002091350230E0822B932B9093410280934D
:1017C00040027091360260E02091370230E0622BD7
:1017D000732B882777FD8095982F0E94DB2D6093CF
:1017E0002602709327028093280290932902709119
:1017F000380260E02091390230E0622B732B882799
:1018000077FD8095982F0E94DB2D609322027093C4
:101810002302809324029093250270913A0260E0A3
:1018200020913B0230E0622B732B882777FD809557
:10183000982F0E94DB2D60932A0270932B028093D5
:101840002C0290932D020E94CA040895CF93DF9337
:10185000EC018330910509F453C08430910544F4C0
:101860008130910571F08230910509F05BC012C0A2
:101870008430910509F44FC08530910509F052C0BC
:101880004DC081E090E00E94480AD0937702C09357
:10189000760248C081E090E00E94480A10927702E8
:1018A000109276020E94D01C60933C0270933D021D
:1018B00080933E0290933F020E94880B6091160233
:1018C00070911702809118029091190290582091FE
:1018D0001E0230911F0240912002509121020E946D
:1018E000E92C21EE3EE245E652E40E94BB2E6093D5
:1018F000620270936302809364029093650212C047
:1019000082E090E00E94480A81E090E090937702A4
:101910008093760207C083E090E002C084E090E00C
:101920000E94480ADF91CF910895DF92EF92FF92D3
:101930000F931F93F82E8B01E42ED22E82E393E0B7
:1019400068E60E94691582E393E06F2D0E94F51509
:1019500082E393E0B8014E2D50E00E94C41582E36B
:1019600093E06D2D0E942516082F882369F08FEAD9
:1019700094E06FE071E00E9431228FEA94E0602FE2
:101980004AE050E00E941723802F1F910F91FF9093
:10199000EF90DF900895DF93CF930F92CDB7DEB72E
:1019A0006983242FBE016F5F7F4F41E00E94950C39
:1019B0000F90CF91DF9108952F923F924F925F92B7
:1019C0006F927F928F929F92AF92BF92CF92DF924F
:1019D000EF92FF920F931F938091AE0160E00E94FF
:1019E000DD1D8091A20161E00E94DD1D8091A001BA
:1019F00061E00E94DD1D8091A40161E00E94DD1D77
:101A000080E00E9440198091A2016FEF40E00E94A7
:101A1000BE198091A0016FEF40E00E94BE19809135
:101A2000A4016FEF40E00E94BE198091A20160E91D
:101A300071E040E951E00E9467198091A00160E9DE
:101A400071E040E951E00E9467198091A40160E9CA
:101A500071E040E951E00E9467198FEA94E060E884
:101A600075E20E94CD1E85E495E040E052EC61E015
:101A700070E00E946D2082E393E00E94451682E3AD
:101A800093E068E670E00E94731582E393E06BE6F2
:101A90000E94F51582E393E060E00E94F51582E371
:101AA00093E061E00E9425160E94C21C0E94D92D7D
:101AB00060938402709385028093860290938702DC
:101AC00081E090E09093B3018093B2010E94260CD4
:101AD0008CE08093B80087E080932E0210922F0252
:101AE000109230021092310289E16EE272E044E01D
:101AF00020E00E94950C8823B9F78BE661E041E075
:101B00000E94CB0C8823C9F785E76EE272E041E0C2
:101B10000E940D0B8823C1F780912E02883639F080
:101B20008FEA94E069ED70E00E943122FFCF64E615
:101B300070E080E090E00E94F61C8BE36EE272E0C1
:101B400046E00E940D0B8823C1F770912E0260E0E1
:101B500020912F0230E0622B732B882777FD809530
:101B6000982F0E94DB2D3B014C016093160270936D
:101B7000170280931802909319027091300260E06E
:101B80002091310230E0622B732B882777FD8095FE
:101B9000982F0E94DB2D1B012C0160931A02709379
:101BA0001B0280931C0290931D027091320260E030
:101BB0002091330230E0622B732B882777FD8095CC
:101BC000982F0E94DB2D5B016C0160931E027093C5
:101BD0001F028093200290932102C401B301A4014B
:101BE00093010E94BB2E7B018C01C601B501A601A9
:101BF00095010E94BB2E9B01AC01C801B7010E9458
:101C0000762C0E94222F9B01AC01C201B1010E94DF
:101C1000402D0E94142D21EE3EE245E652E40E9442
:101C2000BB2E7B018C01CB01D80180936A0290937B
:101C30006B02A0936C02B0936D0297FA909497F8A0
:101C40009094C401B301A60195010E94E92C21EEF4
:101C50003EE245E652E40E94BB2E9B01AC0120937C
:101C60006E0230936F024093700250937102209382
:101C70005A0230935B0240935C0250935D029701DD
:101C8000A80120935E0230935F024093600250935C
:101C90006102AC01CB01DA0180936202909363028E
:101CA000A0936402B0936502C701D80180936602D5
:101CB00090936702A0936802B09369020E94D01CBF
:101CC00060933C0270933D0280933E0290933F02EA
:101CD0000E94C21C0E94D92D60937C0270937D02E9
:101CE00080937E0290937F02E0EAF2E080E090E051
:101CF000A4EBB2E481939193A193B19322E0EC3CE5
:101D0000F207C1F70E944C070E94010A0E943D0899
:101D10001F910F91FF90EF90DF90CF90BF90AF9009
:101D20009F908F907F906F905F904F903F902F90FB
:101D300008958091AC0161E00E94DD1D8091AC01AD
:101D400060E00E946A1E6AE070E080E090E00E941D
:101D5000F61C8091AC0160E00E94DD1D8091AC0119
:101D600061E00E946A1E8FEA94E066E671E00E94DC
:101D700086240E94C21C0E94D92D60938002709319
:101D8000810280938202909383020895EF92FF92E2
:101D90000F931F93DF93CF93CDB7DEB7C050D140E1
:101DA0000FB6F894DEBF0FBECDBF7E010894E11CD4
:101DB000F11C80E091E0F7019C011192215030402C
:101DC000E1F78DB79EB708970FB6F8949EBF0FBE88
:101DD0008DBF0DB71EB70F5F1F4FEDB7FEB7F28275
:101DE000E1828FE691E0F801938382838091B201D2
:101DF0009091B3019583848360919A0270919B02C4
:101E000080919C0290919D020E94A82DF8017783F9
:101E100066830E9429022DB73EB7285F3F4F0FB659
:101E2000F8943EBF0FBE2DBF85E495E0B7010E9438
:101E3000892385E495E065E771E00E948923E090BD
:101E40006202F09063020091640210916502C80181
:101E5000B70120E030E040E050E00E943C2D8823B4
:101E600054F4C801B70120E030E044EB53E40E9491
:101E7000762C7B018C0185E495E0B801A70122E076
:101E800030E00E94702485E495E065E771E00E94EF
:101E9000892340916A0250916B0260916C027091AB
:101EA0006D0285E495E022E030E00E94702485E434
:101EB00095E065E771E00E948923409116025091F8
:101EC0001702609118027091190285E495E022E0F2
:101ED00030E00E94702485E495E065E771E00E949F
:101EE000892340911A0250911B0260911C0270914B
:101EF0001D0285E495E022E030E00E94702485E434
:101F000095E065E771E00E94892340911E0250919F
:101F10001F02609120027091210285E495E022E089
:101F200030E00E9473248091A8010E949D1E892B9D
:101F300009F0BDC08FEA94E0BE016F5F7F4F0E9441
:101F400089238FEA94E065E771E00E948923E0909D
:101F50006202F09063020091640210916502C80170
:101F6000B70120E030E040E050E00E943C2D8823A3
:101F700054F4C801B70120E030E044EB53E40E9480
:101F8000762C7B018C018FEA94E0B801A70122E056
:101F900030E00E9470248FEA94E065E771E00E94CF
:101FA000892340916A0250916B0260916C0270919A
:101FB0006D028FEA94E022E030E00E9470248FEA04
:101FC00094E065E771E00E948923409116025091E8
:101FD000170260911802709119028FEA94E022E0D2
:101FE00030E00E9470248FEA94E065E771E00E947F
:101FF000892340911A0250911B0260911C0270913A
:102000001D028FEA94E022E030E00E9470248FEA03
:1020100094E065E771E00E94892340911E0250918F
:102020001F0260912002709121028FEA94E022E069
:1020300030E00E9470248FEA94E065E771E00E942E
:1020400089234091220250912302609124027091D1
:1020500025028FEA94E022E030E00E9470248FEAAB
:1020600094E065E771E00E94892340912602509137
:10207000270260912802709129028FEA94E022E001
:1020800030E00E9470248FEA94E065E771E00E94DE
:10209000892340912A0250912B0260912C02709169
:1020A0002D028FEA94E022E030E00E947324C050B9
:1020B000DF4F0FB6F894DEBF0FBECDBFCF91DF91DB
:1020C0001F910F91FF90EF900895EF92FF920F9361
:1020D0001F93DF93CF93CDB7DEB72E970FB6F8944B
:1020E000DEBF0FBECDBF8091AE010E949D1E019745
:1020F00009F58091B2019091B3018130910511F001
:102100000497C1F48091760290917702019791F43F
:102110000E94C21C0E94D92D60938002709381029C
:1021200080938202909383028FEA94E067E771E0E4
:102130000E94862485E495E00E94F420892BC9F151
:102140008E010F5F1F4FC80165E475E00E94C52432
:1021500080E992E0B8010E94FF28C8010E94162978
:1021600080E992E00E942B287093B3016093B20142
:1021700061307105A1F40E94C21C0E94D92D6093A8
:102180007C0270937D0280937E0290937F020E9476
:10219000990E8091B2019091B3010E94260C80911A
:1021A000B2019091B301029721F482E090E00E9485
:1021B000260C8FEA94E00E94CE1E892B69F18E01D5
:1021C000085F1F4FC8016FEA74E00E94C52480E9D0
:1021D00092E0B8010E94FF28C8010E94162980E9F8
:1021E00092E00E942B287093B3016093B201623099
:1021F000710539F481E08093970282E090E00E94BB
:10220000260C8091B2019091B301019739F481E0DD
:1022100090E00E94260C02C0109297028091B201B9
:102220009091B30187309105F1F08830910524F445
:10223000069709F07FC007C08830910549F10997DA
:1022400009F078C061C081E090E00E94480A0E94D5
:102250004C0781E08093150282E090E09093B301F7
:102260008093B20167C082E090E00E94480A0E9419
:102270003D0882E090E09093B3018093B201109208
:10228000110210921202109213021092140239C01D
:1022900082E090E00E94480AEE24FF2487011EC0DD
:1022A0008FEA94E065E871E00E948624772717FDA5
:1022B0007A95612F502F4F2D8FEA94E02AE030E07D
:1022C0000E947523C801B7010E94E90880E091E0EF
:1022D000A0E0B0E0E80EF91E0A1F1B1F809111025A
:1022E00090911202A0911302B0911402E816F9061F
:1022F0000A071B07ACF282E090E09093B301809351
:10230000B20181E090E014C082E090E00E94480AAF
:102310000E94C50881E090E09093B3018093B201E0
:1023200010921102109212021092130210921402D3
:102330000E94480A2E960FB6F894DEBF0FBECDBF9E
:10234000CF91DF911F910F91FF90EF9008951F9310
:10235000CF93DF938091A6010E94A51DAA2797FD28
:10236000A095BA2FBC01CD010E94DB2D20E030E00A
:1023700048EC52E40E94BB2E20E030EC42E254E4F0
:102380000E94402D9B01AC0120939A0230939B0246
:1023900040939C0250939D020E940B0660939A0208
:1023A00070939B0280939C0290939D028091B20156
:1023B0009091B30190939F0280939E028091A80117
:1023C0000E949D1E892B69F480919902882349F40B
:1023D00084E090E09093B3018093B20181E0809318
:1023E000980280919802882311F18091A8010E949F
:1023F0009D1EEC0181309105D1F40E94C21C0E9407
:10240000D92D60937C0270937D0280937E0290931D
:102410007F02D093B301C093B2018091AA0161E021
:102420000E94DD1D8091AA0160E00E946A1E109149
:102430009802112309F16091B8017091B9018827C0
:1024400077FD8095982F0E94DB2D9B01AC01609158
:102450009A0270919B0280919C0290919D020E9431
:10246000B02E88234CF085E090E09093B3018093E8
:10247000B20181E08093990260919A0270919B026F
:1024800080919C0290919D022091B4013091B50100
:102490004091B6015091B7010E943C2D8823A4F4CD
:1024A000112391F483E090E09093B3018093B20103
:1024B0000E94C21C0E94D92D60937C0270937D0201
:1024C00080937E0290937F022091B2013091B301FC
:1024D00080919E0290919F022817390731F4233092
:1024E000310519F02430310519F4C9010E94260C78
:1024F0000E94C21C0E94D92D20917C0230917D0245
:1025000040917E0250917F020E94752C20E03CE7B2
:1025100042E958E40E94B02E18169CF48091B20152
:102520009091B3018130910511F0039751F480919E
:10253000AA0161E00E94DD1D8091AA0160E00E9475
:102540006A1E0E94C21C0E94D92D60938C02709357
:102550008D0280938E0290938F02DF91CF911F9115
:1025600008952F923F924F925F926F927F928F9237
:102570009F92AF92BF92CF92DF92EF92FF920F9312
:102580001F93DF93CF93CDB7DEB72A970FB6F8949A
:10259000DEBF0FBECDBF0E94C21C0E94D92D60932A
:1025A00084027093850280938602909387020E9432
:1025B00065106091840270918502809186029091ED
:1025C000870220918C0230918D0240918E025091B1
:1025D0008F020E94752C20E030E04AEF53E40E9405
:1025E000B02E18164CF58091B2019091B301823053
:1025F000910531F480919702813009F04EC20AC0F2
:10260000039709F04AC28091A8010E949D1E01977C
:1026100009F043C20E94C21C0E94D92D60938C0213
:1026200070938D0280938E0290938F028091B201FD
:102630009091B3010E94260C8091B2019091B30158
:102640000197E1F460918402709185028091860285
:102650009091870220918002309181024091820204
:10266000509183020E94752C20E030E44CE956E43E
:102670000E94B02E181614F40E94990E80917602D2
:1026800090917702892B09F00BC20E94880B8091F0
:102690001502882311F00E94AD07E0901602F09019
:1026A0001702009118021091190260901E0270909A
:1026B0001F028090200290902102C801B701A8015A
:1026C00097010E94BB2E5B016C01C401B301A40100
:1026D00093010E94BB2E9B01AC01C601B5010E9473
:1026E000762C0E94222F9B01AC0160911A027091FE
:1026F0001B0280911C0290911D020E94402D0E949D
:10270000142D21EE3EE245E652E40E94BB2E60937A
:102710006A0270936B0280936C0290936D0217FBB8
:10272000109517F91095C801B701A40193010E94F3
:10273000E92C21EE3EE245E652E40E94BB2E609376
:102740006E0270936F0280937002909371020E94E8
:10275000D01C20913C0230913D0240913E025091AC
:102760003F02621B730B840B950B0E94D92D20E056
:1027700034E244E759E40E94402D6093780270935C
:10278000790280937A0290937B020E94D01C60931E
:102790003C0270933D0280933E0290933F020E9460
:1027A00073066091B0017091B101882777FD809523
:1027B000982F0E94DB2D9B01AC01609172027091F9
:1027C000730280917402909175020E943C2D8823BF
:1027D0000CF060C12090220230902302409024022D
:1027E000509025028091260290912702A091280204
:1027F000B09129028D839E83AF83B88760906E026B
:1028000070906F028090700290907102C401B301C9
:1028100020E030E044EB52EC0E943C2D882384F40D
:1028200060916202709163028091640290916502EE
:1028300020E030E044EB52E40E94B02E1816D4F0B1
:10284000C401B30120E030E044EB52E40E94B02E1A
:10285000181604F56091620270916302809164021F
:102860009091650220E030E044EB52EC0E943C2D58
:10287000882384F460926202709263028092640200
:102880009092650260925A0270925B0280925C02A2
:1028900090925D02E0907802F090790200917A02C5
:1028A00010917B02C201B10120E030E043E053E42B
:1028B0000E94402DA80197010E94BB2E5B016C0174
:1028C00020915A0230915B0240915C0250915D026E
:1028D0000E94762C1B012C0160935A0270935B02BC
:1028E00080935C0290935D026D817E818F819885DB
:1028F00020E030E043E053E40E94402DA80197011E
:102900000E94BB2E7B018C0120915E0230915F0200
:1029100040916002509161020E94762C69837A8313
:102920008B839C8360935E0270935F02809360024E
:1029300090936102C801B701209162023091630255
:1029400040916402509165020E94762C2BE734E19D
:102950004EE65FE30E94BB2E7B018C01C401B301F4
:1029600029E23CE54FE85DE30E94BB2E9B01AC01F0
:10297000C801B7010E94762C762E672E89879A8728
:10298000AC01CB01DA018093620290936302A093C1
:102990006402B0936502C601B501209166023091D0
:1029A000670240916802509169020E94762C2BE7E1
:1029B00034E14EE65FE30E94BB2E7B018C01609107
:1029C0006A0270916B0280916C0290916D0229E213
:1029D0003CE54FE85DE30E94BB2E9B01AC01C801C2
:1029E000B7010E94762CE62EA72E982E892EAC01D8
:1029F000CB01DA018093660290936702A09368028C
:102A0000B0936902C201B10120E030E044E353EC2D
:102A10000E943C2D87FD0AC0C201B10120E030E0D8
:102A200044E353E40E94B02E181674F4272D362D7B
:102A300049855A85C901DA0180935A0290935B0255
:102A4000A0935C02B0935D0269817A818B819C8145
:102A500020E030E044E353EC0E943C2D87FD0CC0A5
:102A600069817A818B819C8120E030E044E353E4EA
:102A70000E94B02E181674F42E2D3A2D492D582D83
:102A8000C901DA0180935E0290935F02A093600215
:102A9000B09361020E94C60E03C00E94A711CCCD64
:102AA0002A960FB6F894DEBF0FBECDBFCF91DF914F
:102AB0001F910F91FF90EF90DF90CF90BF90AF905C
:102AC0009F908F907F906F905F904F903F902F904E
:102AD000089581E08093310360930E0310922F03D9
:102AE00010923003089581E08093310360930E03C8
:102AF00010922F0310923003089520910D0330E0BF
:102B000080910C03281B3109C901089540910C03E1
:102B100080910D03481718F02FEF3FEF0AC0E42F04
:102B2000F0E0E451FD4F8081282F30E04F5F40936B
:102B30000C03C9010895E0910C0380910D03E8177F
:102B400018F0EFEFFFEF06C0F0E0E451FD4F808199
:102B5000E82FF0E0CF010895089510923503109208
:102B6000340388EE93E0A0E0B0E0809336039093C6
:102B70003703A0933803B093390380ED91E090932D
:102B80003303809332030895CF92DF92EF92FF9246
:102B90000F931F93CF93DF937C016B018A01809188
:102BA00031038823A1F0C0E0D0E00DC0D701ED9142
:102BB000FC91D601AC0FBD1F0190F081E02DC70143
:102BC0006C9109952196C017D10780F304C0CB0101
:102BD000642F0E94EE16C801DF91CF911F910F91D3
:102BE000FF90EF90DF90CF900895DF93CF930F92F7
:102BF000CDB7DEB7FC016983809131038823C9F02A
:102C000080913003803238F081E090E093838283BA
:102C100020E030E015C080912F03E82FF0E0E15F65
:102C2000FC4F998190838F5F80932F0380933003B3
:102C300005C0CE01019661E00E94EE1621E030E071
:102C4000C9010F90CF91DF9108950F93062F8091C6
:102C50000E036FE073E04091300321E00E9499166B
:102C600010922F0310923003109231030F910895A8
:102C7000413208F040E2862F6CEE72E00E9450165E
:102C800010920C0380930D03089510920C03109280
:102C90000D0310922F03109230030E949A1808958A
:102CA000382F413210F040E042C080913E0388232B
:102CB000E1F791E090933E03209340038FEF8093E0
:102CC000AB03109266034150409367034F5F9093AC
:102CD0003F0380913F03330F832B80933F03809109
:102CE0004103813041F41092410380913F0380936E
:102CF000BB0085EC01C085EE8093BC0080913E0353
:102D00008130E1F380916603841710F440916603EB
:102D100020E030E00AC0FB01E20FF31FD901AA5BFB
:102D2000BC4F8C9180832F5F3F4F2417A0F3842FDB
:102D300008950F931F93582F122F413210F081E006
:102D40004AC080913E038823E1F782E080933E03EE
:102D5000009340038FEF8093AB0310926603409380
:102D60006703A6E4B3E0FB0102C081918D938E2F2F
:102D7000861B8417D0F310923F0380913F03550FB9
:102D8000852B80933F0380914103813041F4109261
:102D9000410380913F038093BB0085EC01C085EE29
:102DA0008093BC00112321F080913E038230E1F337
:102DB0008091AB038F3F11F480E00DC08091AB0395
:102DC000803211F482E007C08091AB03803311F0B0
:102DD00084E001C083E01F910F910895482F613274
:102DE00010F081E0089580913E03843011F082E07C
:102DF000089560938903A8E6B3E0842F9C01F9014C
:102E000002C081918D938E2F841B8617D0F380E0B2
:102E100008951F920F920FB60F9211242F933F9394
:102E20004F935F936F937F938F939F93AF93BF93D2
:102E3000EF93FF938091B90090E0887F9070803687
:102E4000910509F4F2C081369105CCF588329105DF
:102E500009F47BC089329105B4F48031910509F4FD
:102E60006FC0813191053CF4009709F447C1089780
:102E700009F04FC165C08831910509F466C080979B
:102E800009F047C182C08034910509F4A4C081349F
:102E9000910544F48033910509F482C0C89709F084
:102EA00038C189C08035910509F489C088359105FC
:102EB00009F496C08834910509F02BC1AEC0883959
:102EC000910509F413C189399105ECF4883791050E
:102ED00009F4ABC0893791054CF48836910509F4A3
:102EE000A4C08037910509F014C19FC088389105AE
:102EF00009F4FCC08039910509F49DC08038910522
:102F000009F007C198C0803B910509F4C6C0813B18
:102F100091054CF4803A910509F49FC0883A9105D7
:102F200009F0F7C0BAC0803C910509F4E3C0883CC1
:102F3000910509F4DFC0883B910509F0EAC0C2C0E1
:102F400080913F038093BB00CFC090916603809136
:102F50006703981768F490916603E92FF0E0EA5B45
:102F6000FC4F80818093BB009F5F90936603BCC041
:102F700080914003882309F44BC085ED8093BC0009
:102F80008091BC0084FDFCCFC2C080E28093AB0383
:102F900085ED8093BC008091BC0084FDFCCFB7C060
:102FA00080E38093AB0385ED8093BC008091BC00EF
:102FB00084FDFCCFACC088E38093AB039BC08091C1
:102FC00066039091BB00E82FF0E0EA5BFC4F908332
:102FD0008F5F80936603909166038091670382C040
:102FE000809166039091BB00E82FF0E0EA5BFC4F14
:102FF00090838F5F8093660380914003882341F024
:1030000085ED8093BC008091BC0084FDFCCF7FC027
:1030100081E08093410384EA6EC085ED8093BC001B
:103020008091BC0084FDFCCF72C083E080933E039E
:103030001092AA0359C08091AA03803208F056C0AA
:103040008091AA039091BB00E82FF0E0E657FC4F77
:1030500090838F5F8093AA0347C08091AA03803238
:1030600030F4E091AA03F0E0E657FC4F108285EDC2
:103070008093BC008091BC0084FDFCCF10923E0385
:103080006091AA03E0914403F09145038AE893E03C
:1030900070E009951092AA032DC084E080933E034E
:1030A0001092880310928903E0914203F091430348
:1030B000099580918903882329F481E0809389030D
:1030C0001092680390918803E92FF0E0E859FC4FD3
:1030D00080818093BB009F5F9093880390918803C9
:1030E00080918903981710F485EC01C085E88093DE
:1030F000BC000FC085EC8093BC0009C01092AB03EC
:1031000085ED8093BC008091BC0084FDFCCF1092C3
:103110003E03FF91EF91BF91AF919F918F917F916E
:103120006F915F914F913F912F910F900FBE0F9034
:103130001F90189510923E0381E0809340031092F7
:10314000410382E061E00E946A1E83E061E00E9428
:103150006A1EE9EBF0E080818E7F808380818D7F25
:10316000808388E48093B80085E48093BC00089550
:103170001F920F920FB60F9211242F933F934F93EC
:103180005F936F938F939F93AF93BF93EF93FF934F
:103190008091BA018F5F8093BA018091BA01882330
:1031A00019F0EDEAF3E041C0EEEAF3E06681662350
:1031B00019F48781882301F18481282F30E08581EB
:1031C00090E0A901481B590B1416150644F4662318
:1031D00031F0860F911D8217930764F40AC057FFE0
:1031E00009C04781442331F0841B9109281739070E
:1031F0000CF49C01258302C084818583858188230A
:1032000071F08081A181B2819381882321F48C9116
:10321000892B8C9304C08C91909598239C9339961C
:1032200084E0E236F80711F6BCCF808187FD13C039
:103230009091BA018681891771F48181A281B3814D
:103240009481882329F48C91909598239C9303C0B2
:103250008C91892B8C93399684E0E136F80729F715
:10326000FF91EF91BF91AF919F918F916F915F917E
:103270004F913F912F910F900FBE0F901F90189577
:10328000982F1092C00084E08093C1001092C20079
:103290001092C3001092C4001092D10082E8809373
:1032A000D10080E48093720080917200EDEAF3E037
:1032B0008FEF8083118213821282178210863996D3
:1032C00024E0E136F207A9F79093AC0308954F92FA
:1032D0005F926F927F929F92AF92BF92CF92DF9256
:1032E000EF92FF920F931F93CF93DF93982E2B01B2
:1032F0003A01CDEAD3E05A01CC24DD247B0100E081
:1033000010E0888197FE03C087FF03C022C08915A3
:1033100001F54114510419F420E030E008C060EFD9
:103320007FE080E090E0A80197010E94D02F2F83DA
:103330006114710419F420E030E008C060EF7FE010
:1033400080E090E0A60195010E94D02F288797FE8B
:1033500005C0299684E0C136D80799F6DF91CF9150
:103360001F910F91FF90EF90DF90CF90BF90AF90A3
:103370009F907F906F905F904F9008951F93182FAC
:10338000442339F01092BF001092BE008FEF80935B
:10339000BA01EDEAF3E09FEF20E0808117FF03C060
:1033A00087FF03C005C0811719F4658317FF4BC061
:1033B0009F3F19F4808187FD922F2F5F399624312A
:1033C00061F717FD40C09F3F09F43DC0892F992741
:1033D00087FD9095DC0123E0AA0FBB1F2A95E1F73A
:1033E000A80FB91FA355BC4F1C932091AC03119695
:1033F0002C931197412F552747FD5095FA01E55B16
:10340000FE4FE491F0E0EE0FFF1FE15DFE4F85916E
:10341000949113969C938E93129747595E4FFA019D
:10342000849114968C93149715966C93222319F417
:10343000812F60E002C0812F61E00E946A1E812F0F
:1034400061E00E94DD1D1F910895282F8FEF689F76
:10345000C001112464E670E00E94A92F822F0E940F
:10346000BE190895FC0160835283418308950F9330
:103470001F938C01FC01808161E00E946A1EF801AB
:1034800083818CBD84818DBD78941F910F910895A7
:103490000F931F938C01F8948CB5F80183838DB53D
:1034A00084838CB5837F8CBD8CB58F7D8CBD8CB5B2
:1034B0008C7F8CBD8DB58E7F8DBD0E945C1CF8010C
:1034C000808160E00E946A1E1F910F9108951F93F2
:1034D000CF93DF93EC010E94481A85E08EBD000077
:1034E0000DB407FEFDCF8EB51EBC00000DB407FE67
:1034F000FDCF1EB5CE010E94371A812FDF91CF91EB
:103500001F9108950E94671A817008951F93CF93A9
:10351000DF93EC01162F209A289A442339F066E0B5
:1035200040E00E94861ACE010E94371ACE010E9406
:10353000821A8823D9F7CE010E94481A1EBD0000C6
:103540000DB407FEFDCF8EB5DF91CF911F91089589
:103550000F931F938C016BEA40E00E94861AC8010A
:103560000E94371A1F910F910895EF92FF920F93C7
:103570001F93CF93DF93EC017A018B0162E541E069
:103580000E94861AC801BB2797FDB095AB2F8EBD50
:1035900000000DB407FEFDCF8EB5BB2717FDBA9511
:1035A000A12F902F8F2D8EBD00000DB407FEFDCFF3
:1035B0008EB5EEBC00000DB407FEFDCF8EB5CE017A
:1035C0000E94371ADF91CF911F910F91FF90EF90DA
:1035D00008950F931F938C0160E641E00E94861AC4
:1035E000C8010E94371A1F910F9108956F927F9220
:1035F0008F929F92AF92BF92CF92DF92EF92FF9203
:103600000F931F93CF93DF934C016A017B01390124
:10361000CB01BA0120E031E040E050E00E94F22FFF
:1036200080E091E0861B970BAA24BB244AC0EC01E2
:103630000817190708F4E801C40162E041E00E949C
:10364000861AC701BB2797FDB095AB2F8EBD000032
:103650000DB407FEFDCF8EB5BB27F7FCBA95AF2D95
:103660009E2D8D2D8EBD00000DB407FEFDCF8EB5B5
:10367000CEBC00000DB407FEFDCF8EB5F301EA0D00
:10368000FB1D20E030E00AC080818EBD00000DB43B
:1036900007FEFDCF8EB52F5F3F4F31962C173D07AC
:1036A00098F3C4010E94371ACE01A0E0B0E0C80E22
:1036B000D91EEA1EFB1EAC0EBD1E0C1B1D0B80E0AE
:1036C00091E00115110509F0B2CFDF91CF911F9163
:1036D0000F91FF90EF90DF90CF90BF90AF909F90B1
:1036E0008F907F906F900895AF92BF92CF92DF92AC
:1036F000EF92FF920F931F93CF93DF93EC016A0138
:103700007B0159016BE040E00E94861AC701BB278C
:1037100097FDB095AB2F8EBD00000DB407FEFDCF19
:103720008EB5BB27F7FCBA95AF2D9E2D8D2D8EBD86
:1037300000000DB407FEFDCF8EB5CEBC00000DB469
:1037400007FEFDCF8EB51EBC00000DB407FEFDCFF9
:103750008EB520E030E00CC01EBC00000DB407FEAA
:10376000FDCF8EB5F501E20FF31F80832F5F3F4F32
:103770002017310788F3CE010E94371ADF91CF91CD
:103780001F910F91FF90EF90DF90CF90BF90AF907F
:103790000895EF92FF920F931F93CF93DF93EC0165
:1037A0007A018B0163E040E00E94861AC801BB27C2
:1037B00097FDB095AB2F8EBD00000DB407FEFDCF79
:1037C0008EB5BB2717FDBA95A12F902F8F2D8EBDDB
:1037D00000000DB407FEFDCF8EB5EEBC00000DB4A9
:1037E00007FEFDCF8EB51EBC00000DB407FEFDCF59
:1037F0001EB5CE010E94371A812FDF91CF911F9104
:103800000F91FF90EF900895EF92FF920F931F9307
:10381000CF93DF93EC016FE940E00E94861A1EBC53
:1038200000000DB407FEFDCF8EB51EBC00000DB428
:1038300007FEFDCFEEB4182F00E0CE010E94371A2C
:10384000FF24E02AF12AC701DF91CF911F910F9148
:10385000FF90EF900895CF93DF93EC018CB58B83AD
:103860008DB58C83888161E00E94DD1DCE010E94B0
:10387000371ACE010E94A81A89819A81892B51F0AA
:10388000CE010E94041C29813A818217930711F00E
:1038900080E00FC0CE0161E041E00E94861A1EBCAC
:1038A00000000DB407FEFDCF8EB5CE010E94371A81
:1038B00081E0DF91CF91089581E161E00E946A1E6D
:1038C00081E161E00E94DD1D8CB580618CBD8CB50D
:1038D00080648CBD8FE061E00E94DD1D80E161E0CD
:1038E0000E94DD1D0895F999FECF72BD61BDF89A61
:1038F00080B508951F920F920FB60F9211242F9347
:103900003F938F939F93AF93BF9380916604909161
:103910006704A0916804B091690430916A0401962B
:10392000A11DB11D232F2D5F2D3720F02D5701969E
:10393000A11DB11D20936A048093660490936704CF
:10394000A0936804B0936904809162049091630429
:10395000A0916404B09165040196A11DB11D8093EE
:10396000620490936304A0936404B0936504BF91D0
:10397000AF919F918F913F912F910F900FBE0F901C
:103980001F9018958FB7F8942091660430916704C2
:1039900040916804509169048FBFB901CA0108952C
:1039A0009FB7F894209162043091630440916404BD
:1039B0005091650486B5A89B06C08F3F21F02F5F0C
:1039C0003F4F4F4F5F4F9FBF542F432F322F222720
:1039D000280F311D411D511D82E0220F331F441F4E
:1039E000551F8A95D1F7B901CA0108959B01AC0111
:1039F0007FB7F8948091620490916304A09164046D
:103A0000B091650466B5A89B05C06F3F19F001969B
:103A1000A11DB11D7FBFBA2FA92F982F8827860F10
:103A2000911DA11DB11D62E0880F991FAA1FBB1F28
:103A30006A95D1F7BC012DC0FFB7F894809162045C
:103A400090916304A0916404B0916504E6B5A89BCD
:103A500005C0EF3F19F00196A11DB11DFFBFBA2FA0
:103A6000A92F982F88278E0F911DA11DB11DE2E06F
:103A7000880F991FAA1FBB1FEA95D1F7861B970BCA
:103A8000885E9340C8F22150304040405040685119
:103A90007C4F211531054105510571F60895789443
:103AA00084B5826084BD84B5816084BD85B5826043
:103AB00085BD85B5816085BDEEE6F0E080818160E1
:103AC0008083E1E8F0E010828081826080838081E1
:103AD00081608083E0E8F0E0808181608083E1E9BB
:103AE000F0E0808182608083808181608083E0E972
:103AF000F0E0808181608083E1ECF0E0808184608F
:103B00008083808182608083808181608083E3EC18
:103B1000F0E0808181608083E0ECF0E08081826071
:103B20008083E2ECF0E0808181608083EAE7F0E06E
:103B300080818460808380818260808380818160D5
:103B400080838081806880830895823108F082516B
:103B5000E82FF0E0EB55FE4FE49120917B008E2F93
:103B600086958695869590E08170907035E0880FF7
:103B7000991F3A95E1F72F7D282B20937B00E77062
:103B80008091BB018295880F880F807C8E2B80935B
:103B90007C0080917A00806480937A0080917A0022
:103BA00086FDFCCF2091780040917900942F80E031
:103BB00030E0282B392BC9010895CF93DF93482F8C
:103BC00050E0CA0187599E4FFC013491455B5E4F1E
:103BD000FA018491882369F190E0880F991FFC0114
:103BE000EF5DFE4FA591B491FC01E15DFE4FC591E3
:103BF000D491662351F42FB7F8948C91932F90951C
:103C000089238C93888189230BC0623061F42FB79C
:103C1000F8948C91932F909589238C938881832B92
:103C200088832FBF06C09FB7F8948C91832B8C9309
:103C30009FBFDF91CF910895883071F1893068F48A
:103C4000823031F1833020F4813009F042C01DC050
:103C5000833089F08430E9F512C08B3059F18C3013
:103C600028F48930E9F08A30A1F51EC08C3031F19A
:103C70008E3079F529C0809180008F7703C08091C4
:103C800080008F7D80938000089584B58F7702C077
:103C900084B58F7D84BD0895809190008F7707C093
:103CA000809190008F7D03C080919000877F8093EA
:103CB000900008958091C0008F7703C08091C0006C
:103CC0008F7D8093C00008958091C200877F80938C
:103CD000C2000895FF920F931F93F62E482F50E0D5
:103CE000CA0189579E4FFC012491CA0187599E4FF2
:103CF000FC011491455B5E4FFA0104910023C9F069
:103D0000222319F0822F0E941C1EE02FF0E0EE0FFC
:103D1000FF1FE15DFE4FA591B4919FB7F894FF207E
:103D200021F48C911095812302C08C91812B8C936E
:103D30009FBF1F910F91FF9008950F931F93482FDE
:103D400050E0CA0189579E4FFC012491CA0187594E
:103D50009E4FFC010491455B5E4FFA0114911123C3
:103D600019F420E030E015C0222319F0822F0E94C0
:103D70001C1E812F90E0880F991F835C9E4FFC01D1
:103D8000A591B4918C9120E030E0802311F021E0E6
:103D900030E0C9011F910F91089508952091AB045F
:103DA0003091AC048091AD049091AE04281B390B86
:103DB0002F733070C90108952091AB043091AC0489
:103DC0008091AD049091AE042817390719F42FEFB4
:103DD0003FEF09C0E091AD04F091AE04E559FB4F0F
:103DE0008081282F30E0C90108952091AB043091E3
:103DF000AC048091AD049091AE042817390719F4F2
:103E00002FEF3FEF13C0E091AD04F091AE04E55900
:103E1000FB4F20818091AD049091AE0401968F7389
:103E200090709093AE048093AD0430E0C901089582
:103E30001092B2041092B10488EE93E0A0E0B0E0DA
:103E40008093B3049093B404A093B504B093B604E4
:103E500080EE91E09093B0048093AF0408950F93A7
:103E60001F93DF93CF930F92CDB7DEB78C01698399
:103E70008091C301882369F083E0BE016F5F7F4FAB
:103E800041E050E00E94B6251816190614F49C0172
:103E900007C081E090E0F8019383828320E030E066
:103EA000C9010F90CF91DF911F910F91089583E089
:103EB0000E948B250895CF93DF9312C082E00E9469
:103EC00016252FEF8F3F9207C9F0E091AB04F091D8
:103ED000AC04E559FB4F8083D093AC04C093AB0492
:103EE000C091AB04D091AC042196CF73D070809177
:103EF000AD049091AE04C817D90701F7DF91CF91B7
:103F00000895FC0180818E5F808380E861EB71E021
:103F100042E450E00E942F250895FC0181819081A8
:103F2000913A59F4813209F04CC080E06CEB71E0B9
:103F300047E050E00E942F2542C0913209F041C075
:103F4000803239F48CEB91E067E070E00E947325D9
:103F500036C0823209F035C082818093C3018091DE
:103F6000BC019091BD01A091BE01B091BF01805BE9
:103F70009440A040B04019F58091C30180FD12C06B
:103F800087E797E790930108809300082BE088E18A
:103F900090E00FB6F894A895809360000FBE209330
:103FA00060000DC088E10FB6F89480936000109215
:103FB00060000FBEA895109201081092000881E0E1
:103FC000089580E0089508951F920F920FB60F9202
:103FD00011242F933F934F938F939F93EF93FF93CE
:103FE0008091C80082FD1DC04091CE002091FD044B
:103FF0003091FE042F5F3F4F2F7330708091FF048C
:10400000909100052817390771F0E091FD04F091B7
:10401000FE04E354FB4F40833093FE042093FD04E1
:1040200002C08091CE00FF91EF919F918F914F91AF
:104030003F912F910F900FBE0F901F901895E09118
:104040005105F0915205E05CFF4F819191912081E3
:104050003181821B930B8F739070892B11F00E941A
:10406000E31F08951F920F920FB60F9211242F9302
:104070003F938F939F93EF93FF932091410530914E
:10408000420580914305909144052817390731F482
:104090008091C9008F7D8093C90014C0E0914305D1
:1040A000F0914405EF5FFA4F208180914305909194
:1040B000440501968F739070909344058093430557
:1040C0002093CE00FF91EF919F918F913F912F917F
:1040D0000F900FBE0F901F901895AF92BF92DF9276
:1040E000EF92FF920F931F93CF93DF93EC017A012E
:1040F0008B01DD24403081EE580780E0680780E0C6
:10410000780711F0DD24D39491E0A92EB12CEC892D
:10411000FD89DD2069F0C50108A002C0880F991F44
:104120000A94E2F7808360E079E08DE390E005C0D7
:10413000108260E874E88EE190E0A80197010E9487
:10414000D02F2150304040405040569547953795EC
:10415000279580E12030380720F0DD2011F0DD24A4
:10416000D6CFE889F9893083EA89FB89208319A2AF
:10417000EE89FF89408121E030E0C9010C8C02C04A
:10418000880F991F0A94E2F7482B4083EE89FF8934
:104190004081C9010D8C02C0880F991F0A94E2F773
:1041A000482B4083EE89FF894081C9010E8C02C0F3
:1041B000880F991F0A94E2F7482B4083EE89FF8904
:1041C00080810F8C02C0220F331F0A94E2F72095E2
:1041D00028232083DF91CF911F910F91FF90EF90C3
:1041E000DF90BF90AF900895DC011C96ED91FC919B
:1041F0001D97E05CFF4F2191319180819181281BB7
:10420000390B2F733070C9010895DC011C96ED91B4
:10421000FC911D97E05CFF4F20813181E054F0401C
:10422000DF01AE5BBF4F8D919C9111972817390725
:1042300019F42FEF3FEF07C08D919C91E80FF91F04
:104240008081282F30E0C9010895DC011C96ED9192
:10425000FC911D97E05CFF4F20813181E054F040DC
:10426000DF01AE5BBF4F8D919C91119728173907E5
:1042700019F42FEF3FEF10C08D919C911197E80F2B
:10428000F91F20818D919C91119701968F739070E9
:1042900011969C938E9330E0C9010895DC019196AC
:1042A0008C919197882339F05496ED91FC91559714
:1042B000808186FFF9CF91961C920895CF93DF936A
:1042C000EC01EE85FF85E05CFF4F20813181E054F9
:1042D000F0402F5F3F4F2F733070DF01AE5BBF4F59
:1042E0008D919C91119728173907D1F3E05CFF4F0E
:1042F00080819181E054F040E80FF91F6083EE85E2
:10430000FF85E05CFF4F31832083EE89FF892081A8
:1043100081E090E00F8C02C0880F991F0A94E2F7A9
:10432000282B208381E089A3EC89FD89808180642A
:10433000808381E090E0DF91CF910895109248054D
:104340001092470588EE93E0A0E0B0E08093490525
:1043500090934A05A0934B05B0934C0582EF91E0F2
:1043600090934605809345058DEB94E0909352051C
:104370008093510581E095E0909354058093530517
:104380008DEC90E090935605809355058CEC90E071
:10439000909358058093570588EC90E090935A05C8
:1043A0008093590589EC90E090935C0580935B05C0
:1043B0008AEC90E090935E0580935D058EEC90E032
:1043C0009093600580935F0584E08093610583E0AE
:1043D0008093620587E08093630585E080936405A0
:1043E00081E0809365050895CF93DF930E944F1D70
:1043F0008FE695E00E9496250E94DC0CCFE1D0E28A
:104400000E94B1122097E1F30E941F20F9CFCF92B2
:10441000DF92EF92FF920F931F93CF93DF937C0174
:104420006B018A01C0E0D0E00FC0D6016D916D0133
:10443000D701ED91FC910190F081E02DC701099524
:10444000C80FD91F015010400115110571F7CE0199
:10445000DF91CF911F910F91FF90EF90DF90CF9060
:104460000895EF92FF920F931F93CF93DF937C01F8
:104470008B01C0E0D0E0F8010F5F1F4F649166230D
:1044800059F0D701ED91FC910190F081E02DC70129
:104490000995C80FD91FEFCFCE01DF91CF911F91A2
:1044A0000F91FF90EF900895EF92FF920F931F935B
:1044B0008C01DC01ED91FC910190F081E02D6DE02B
:1044C00009957C01D801ED91FC910190F081E02DDE
:1044D000C8016AE009959C012E0D3F1DC9011F917D
:1044E0000F91FF90EF900895EF92FF920F931F931B
:1044F0007C010E9431228C01C7010E9454229C0140
:10450000200F311FC9011F910F91FF90EF90089567
:10451000CF93DF93EC016115710519F420E030E0D1
:104520000FC0DB010D900020E9F71197A61BB70B18
:10453000E881F9810280F381E02DAD0109959C01AC
:10454000C901DF91CF9108954F925F927F928F9230
:104550009F92AF92BF92CF92DF92EF92FF920F9312
:104560001F93DF93CF93CDB7DEB7A1970FB6F89423
:10457000DEBF0FBECDBF2C01742ECB01223008F45C
:104580002AE019A231E2C32ED12CCC0EDD1E822EE0
:104590009924AA24BB24672D752FA50194010E949C
:1045A000D02F79018A01C801B701A50194010E94A9
:1045B0008A2F472D461B0894C108D1084A3014F4AD
:1045C000405D01C0495CF6014083E114F10401053E
:1045D000110521F07E2C5F2DC801DDCFC201B6018F
:1045E0000E948822A1960FB6F894DEBF0FBECDBF01
:1045F000CF91DF911F910F91FF90EF90DF90CF90BF
:10460000BF90AF909F908F907F905F904F90089554
:10461000DC012115310541F4ED91FC910190F0810F
:10462000E02D642F099508950E94A4220895CF9249
:10463000DF92EF92FF920F931F936C01E62E9A0187
:10464000FF2400E010E0B801A7010E9408238C01BC
:10465000C6010E945422080F191FC8011F910F9113
:10466000FF90EF90DF90CF900895CF92DF92EF927E
:10467000FF920F931F93CF93DF93EC016A017B01AD
:104680002115310541F4E881F9810190F081E02D97
:10469000642F09951FC02A303105D1F477FF17C068
:1046A000E881F9810190F081E02D6DE209958C019E
:1046B00044275527BA014C195D096E097F09CE01BF
:1046C0002AE00E94A4229801280F391F04C02AE082
:1046D0000E94A4229C01C901DF91CF911F910F91EB
:1046E000FF90EF90DF90CF900895EF92FF920F939D
:1046F0001F937C010E9435238C01C7010E94542224
:104700009C01200F311FC9011F910F91FF90EF9065
:1047100008950E94882208957F928F929F92AF926F
:10472000BF92CF92DF92EF92FF920F931F93CF939E
:10473000DF934C017A018B01722ECB01BA01A801E3
:1047400097010E946F2F882321F0C40161E971E075
:1047500021C0C0E0D0E057016801E894D7F8C60155
:10476000B5012FEF3FEF4FE75FE70E946F2F8823E0
:1047700051F4C601B5012FEF3FEF4FE75FE70E940D
:104780003C2D181614F0C1E0D0E0219739F0C40197
:1047900065E971E00E948822EC0193C0C801B7016D
:1047A0002FEF3FEF4FE75FE40E94B02E181654F052
:1047B000C801B7012FEF3FEF4FE75FEC0E943C2DA0
:1047C000882324F4C40169E971E0E4CFC801B7018A
:1047D00020E030E040E050E00E943C2D87FD03C027
:1047E000C0E0D0E00EC0D401ED91FC910190F081C9
:1047F000E02DC4016DE20995EC0117FB109517F946
:10480000109520E030E040E05FE3DD240BC0CA01FA
:10481000B90120E030E040E251E40E94402D9B01CC
:10482000AC01D394D71498F3C801B7010E94762C39
:104830005B016C010E94AD2D7B018C01C401B801AC
:10484000A7012AE030E00E940823C80FD91F772073
:1048500039F0C4016DE971E00E948822C80FD91FA8
:10486000C801B7010E94D92D9B01AC01C601B50159
:104870000E94752C24C020E030E040E251E40E9408
:10488000BB2E7B018C010E94A82D5B016C01CC2406
:10489000B7FCC094DC2CC401B601A5012AE030E0CD
:1048A0000E943523C80FD91FC601B5010E94DB2D18
:1048B0009B01AC01C801B7010E94752C7A94772046
:1048C000D1F6CE01DF91CF911F910F91FF90EF9024
:1048D000DF90CF90BF90AF909F908F907F90089582
:1048E0000E948C230895EF92FF920F931F937C01F7
:1048F0000E948C238C01C7010E945422080F191FAB
:10490000C8011F910F91FF90EF900895EF92FF92D1
:104910000F931F937C010E9488228C01C7010E9483
:104920005422080F191FC8011F910F91FF90EF909B
:104930000895CF93DF93EC010E94C21C68877987AA
:104940008A879B87E881F9810680F781E02DCE0177
:1049500009959C0197FF15C00E94C21C28853985C6
:104960004A855B85621B730B840B950B2C813D8103
:104970004E815F81621773078407950718F32FEF45
:104980003FEFC901DF91CF9108950F931F93CF930C
:10499000DF93182F092FEB016FE971E00E94E528E2
:1049A00004C0812F902F0E949F28CE010E9499243D
:1049B000BC0197FFF6CF812F902FDF91CF911F91F0
:1049C0000F910895282F809169058823C1F057FF22
:1049D0001AC015C0289A909368058091F1008193C0
:1049E000E217F307B9F74115510539F08091F2004C
:1049F000882319F48BE68093E800AFBF02C04FEF25
:104A00005FEFCA010895AFB7F89427702093E900CB
:104A10008091F200282F30E0241735070CF4A9010B
:104A2000FB019B01240F311D94E6DACFDF93CF9376
:104A30000F92CDB7DEB7BE016F5F7F4F41E050E010
:104A40000E94E224019719F02FEF3FEF03C0898104
:104A5000282F30E0C9010F90CF91DF910895FF9288
:104A60000F931F93F82E142F052F40916C05509132
:104A70006D05212F302FC901DC01FB016EEF29C02C
:104A8000F7FE02C0949101C0908120916A05309197
:104A90006B0524173507ACF48091E8008570E1F3CD
:104AA0008091E80082FF03C02FEF3FEF17C0909383
:104AB000F100C90101968F739070892B11F46093F6
:104AC000E8002F5F3F4F30936B0520936A051197E5
:104AD00031961097A9F6812F902F9C01C9011F9143
:104AE0000F91FF9008959C018091E80082FFFCCF18
:104AF000F901260F311D03C08091F1008193E21767
:104B0000F307D1F7289A84E6809368058BEF8093AA
:104B1000E800CB0108958093E9008091F20088239A
:104B200019F08AE38093E8000895089510926905CA
:104B300081E08093D70080EA8093D80082E189BD2C
:104B400009B400FEFDCF61E070E080E090E00E94DB
:104B5000F61C80E98093D8008CE08093E2001092EC
:104B6000E000559A209A5D98289808955F926F9278
:104B70007F928F929F92AF92BF92CF92DF92EF92ED
:104B8000FF920F931F93CF93DF93E82E842E752E01
:104B900080916905882371F18B01242F352FC9017C
:104BA000EC017AEFF72E67E0962E9E2050E4552E0A
:104BB0008E2D90E040E2A42EB12CA822B9223AE337
:104BC000632E20E4C22ED12CC822D92258C09FB710
:104BD000F8949092E9008091E80085FD02C020E001
:104BE00004C08091F200252D281B9FBF222361F471
:104BF000FA9419F42FEF3FEF4DC061E070E080E0D0
:104C000090E00E94F61C3BC0822F90E0C817D907A5
:104C10000CF42C2FC21BD1094FB7F8949092E900E5
:104C2000A114B10421F406C01092F10021502223F6
:104C3000D9F719C0E7FC03C0F801922F10C0C801D2
:104C4000322F06C0FC010196E491E093F10031504F
:104C50003323C1F706C081918093F10091509923CD
:104C6000D1F7020F111D8091E80085FF05C0209744
:104C700029F4C114D10411F06092E8004FBF2097CD
:104C800009F0A5CF5D9A84E680936705282D372D1E
:104C9000C9019C01C901DF91CF911F910F91FF9034
:104CA000EF90DF90CF90BF90AF909F908F907F90CC
:104CB0006F905F9008951F920F920FB60F9211247C
:104CC0002F933F934F935F936F937F938F939F9314
:104CD000AF93BF93EF93FF938091E1001092E100B7
:104CE000982F83FF0FC01092E90081E08093EB00C2
:104CF0001092EC0082E38093ED001092690588E049
:104D00008093F00092FF34C083E08093E9008091AB
:104D1000F200882319F08AE38093E8008FB7F894B3
:104D200092E09093E9009091F2008FBF992321F0D7
:104D30008FEA94E00E945B1F80916705882351F001
:104D4000809167058150809367058091670588236E
:104D500009F45D9880916805882351F08091680579
:104D600081508093680580916805882309F428980C
:104D7000FF91EF91BF91AF919F918F917F916F9133
:104D80005F914F913F912F910F900FBE0F901F9009
:104D900018950F931F93DF93CF930F92CDB7DEB784
:104DA00019828E010F5F1F4FC8010E94811FC80129
:104DB0000E94692C898190E00F90CF91DF911F9123
:104DC0000F9108951F920F920FB60F921124EF9238
:104DD000FF921F932F933F934F935F936F937F9314
:104DE0008F939F93AF93BF93EF93FF93DF93CF93F3
:104DF000CDB7DEB76197DEBFCDBF1092E9008091DD
:104E0000E80083FF0FC1FE0131969E01275F3F4FEF
:104E100003C08091F1008193E217F307D1F7289A3C
:104E200084E68093680582EF8093E800998197FF7C
:104E300005C08091E80080FFFCCF03C08EEF809317
:104E4000E800292F30E0C90180769070892B09F0A5
:104E5000C2C08A81882329F41092F1001092F100D7
:104E6000D6C0813009F4D3C0833009F4D0C0853076
:104E700049F48091E80080FFFCCF8B8180688093AB
:104E8000E300C5C0863009F07CC01C81EF80F88447
:104E90001230C1F51092E90010926B0510926A056C
:104EA00010926D0510926C050E94C92699E0FE01D2
:104EB0003996DF01292F1D922A95E9F799871A87DC
:104EC00091E09E8790E8988B9AEF998B20916A05E4
:104ED00030916B05275F3F4F3C872B878D87109262
:104EE000E90010926B0510926A05F0926D05E09250
:104EF0006C0580E0BF0149E050E00E942F250E9430
:104F0000C92685C01092E90010926B0510926A05BF
:104F1000F0926D05E0926C05123241F482E290E06D
:104F20000E94612C892B09F476C071C0113079F48C
:104F300088E0E816F10419F481E080936E05809111
:104F40006E05882309F06BC0E1E3F2E013C0133073
:104F500009F061C08B81882319F4E3EFF1E00AC006
:104F6000823019F4E7EFF1E005C0813009F053C059
:104F7000E9E1F2E0449180E8BF0150E00E942F2572
:104F800046C0873009F447C0883021F481E080931F
:104F9000F1003DC08930D9F523703070232BD9F54D
:104FA000E6E5F2E091E031E026E39093E90030930A
:104FB000EB0084918093EC002093ED009F5F31968D
:104FC000953099F78EE78093EA001092EA008B8182
:104FD000809369051CC08F8198851092E90010921A
:104FE0006B0510926A0590936D0580936C058D8119
:104FF000882329F4CE0101960E948D1F06C08230BD
:1050000051F4CE0101960E94322B882321F08EEFBD
:105010008093E80007C081E28093EB0003C0E3E4E3
:10502000F2E0A8CF6196DEBFCDBFCF91DF91FF91B7
:10503000EF91BF91AF919F918F917F916F915F9110
:105040004F913F912F911F91FF90EF900F900FBEC6
:105050000F901F901895FC0180819181009729F491
:1050600020E030E040E050E004C00E94DD019B0100
:10507000AC01B901CA0108950F931F93CF93DF9339
:10508000EC018B016F5F7F4F888199810E94512ACB
:10509000009711F480E005C0998388831B830A83FD
:1050A00081E0DF91CF911F910F910895CF93DF930E
:1050B000EC0188819981892B29F08A819B8186174F
:1050C000970760F4CE010E943C28882341F08C8130
:1050D0009D81892B19F4E881F981108281E0DF91AB
:1050E000CF910895EF92FF920F931F93CF93DF9389
:1050F000EC017B016C817D81E114F104C1F041156B
:10510000510599F08A01060F171FB8010E94562811
:10511000882369F0888199812C813D81820F931FBA
:10512000B7010E940D021D830C8381E001C080E065
:10513000DF91CF911F910F91FF90EF900895DF9332
:10514000CF9300D0CDB7DEB769831A82BE016F5FFF
:105150007F4F41E050E00E9472280F900F90CF9156
:10516000DF910895CF93DF93EC01888199810097B7
:1051700011F00E94B929198218821D821C821B829B
:105180001A82DF91CF910895EF92FF920F931F93B0
:10519000CF93DF93EC017B018A01BA010E9456286C
:1051A000882321F4CE010E94B22807C01D830C83FE
:1051B00088819981B7010E940D02CE01DF91CF91C4
:1051C0001F910F91FF90EF900895CF93DF93EC0123
:1051D000198218821B821A821D821C821E8261150E
:1051E000710551F0DB010D900020E9F71197A61B26
:1051F000B70BAD010E94C428DF91CF910895CF93E2
:10520000DF93EC01FB018617970761F060817181E4
:105210006115710529F0448155810E94C42802C09E
:105220000E94B228CE01DF91CF910895FC018081C8
:1052300091810E94B92908950F931F93CF93DF9313
:10524000BC018230910510F462E070E0E0917F05CE
:10525000F091800540E050E0A0E0B0E024C0808103
:10526000918186179707D0F08617970771F482818E
:105270009381109729F013969C938E9312972CC0CC
:105280009093800580937F0527C04115510519F043
:105290008417950718F48D01AC01EF01DF018281BD
:1052A00093819C01F9013097D1F641155105F9F030
:1052B000CA01861B970B8430910580F48A819B81FB
:1052C0000115110521F0F8019383828304C09093A6
:1052D000800580937F05FE01329645C0FE01E80FF0
:1052E000F91F619371930297998388833CC08091E1
:1052F0007D0590917E05892B41F48091C6019091A6
:10530000C70190937E0580937D054091C80150911F
:10531000C9014115510541F44DB75EB78091C401F3
:105320009091C501481B590B20917D0530917E0558
:1053300024173507B0F4CA01821B930B8617970711
:1053400080F0AB014E5F5F4F8417950750F0420F1E
:10535000531F50937E0540937D05F901619371932E
:1053600002C0E0E0F0E0CF01DF91CF911F910F91FB
:105370000895CF93DF939C01009709F48FC0EC014F
:1053800022971B821A8260917F05709180056115BA
:10539000710581F488819981820F931F20917D0589
:1053A00030917E052817390739F5D0937E05C093D3
:1053B0007D0574C0DB0140E050E0AC17BD0708F18B
:1053C000BB83AA83FE0121913191E20FF31FAE1737
:1053D000BF0779F48D919C911197280F391F2E5F8B
:1053E0003F4F3983288312968D919C9113979B830D
:1053F0008A834115510571F4D0938005C0937F05D0
:105400004DC012968D919C911397AD01009711F0AC
:10541000DC01D3CFDA011396DC93CE931297FA0115
:1054200021913191E20FF31FCE17DF0769F48881D4
:105430009981280F391F2E5F3F4FFA013183208356
:105440008A819B8193838283E0E0F0E0DB01129606
:105450008D919C911397009719F0BC01FD01F6CF37
:10546000AB014E5F5F4FDB018D919C91840F951FC7
:1054700020917D0530917E052817390779F4309702
:1054800029F41092800510927F0502C013821282C7
:105490004250504050937E0540937D05DF91CF915F
:1054A00008956F927F928F929F92AF92BF92CF9208
:1054B000DF92EF92FF920F931F93CF93DF938C01B4
:1054C000009729F4CB010E941C298C01BBC08EEFF0
:1054D000E82E8FEFF82EE00EF11E4801860E971E83
:1054E0008E149F0408F4ACC0D7014D915C911197C4
:1054F00046175707B8F04530510508F4A3C0CA0154
:1055000004978617970708F49DC042505040461BE9
:10551000570BF401419351936D937C93CF010E94FB
:10552000B92990C05B01A41AB50A3801640E751E32
:10553000A0917F05B0918005E0E0F0E0CC24DD246F
:1055400047C0A615B705A9F5CD91DC911197CE01FD
:1055500002968A159B0568F1CE018A199B0902966D
:1055600012962C91129713963C91059758F0F401DE
:1055700022833383CA19DB09D183C083D7016D939A
:105580007C9309C04E5F5F4F4C0F5D1FF701518345
:105590004083C901FC01C114D10431F0D601139636
:1055A000FC93EE9312974EC0F0938005E0937F0535
:1055B00049C08D919C911197E817F90708F4FC01F7
:1055C0006D0112968C91129713969C919C01D901B2
:1055D000109709F0B6CF80917D0590917E058615D4
:1055E0009705E9F4E617F707D0F42091C801309148
:1055F000C9012115310541F42DB73EB78091C40191
:105600009091C501281B390B82169306C8F490921D
:105610007E0580927D05F7017183608313C0CB0105
:105620000E941C29EC01009759F0D7014D915C9123
:10563000B8010E940402C8010E94B9298E0102C06B
:1056400000E010E0C801DF91CF911F910F91FF9012
:10565000EF90DF90CF90BF90AF909F908F907F9012
:105660006F900895FC0191818081813A31F49130ED
:1056700089F080E0933089F40DC0813269F49B3069
:1056800021F482818093CA0105C09A3029F4828175
:105690008093CB0181E0089580E00895EF92FF921E
:1056A0000F931F938C01E62EDC01ED91FC91048099
:1056B000F581E02D0995F82ED801ED91FC91068039
:1056C000F781E02DC8016E2D09958F2D90E01F9177
:1056D0000F91FF90EF90089510927005109274054D
:1056E0001092730582E092E09093720580937105A9
:1056F0000895EF92FF920F931F93DF93CF930F9232
:10570000CDB7DEB789838B017A0184E0BE016F5F7C
:105710007F4F41E050E00E94B62584E4B801A70124
:105720000E94B6250F90CF91DF911F910F91FF90AE
:10573000EF90089582E048E050E00E94792B0895B0
:10574000FC01168217821086118612861386148237
:105750003496BF010E949A2B0895DC01683810F03E
:10576000685829C0E62FF0E067FF13C0E058F0400A
:1057700081E090E002C0880F991FEA95E2F78095DA
:1057800014962C911497282314962C93149760E068
:1057900012C0E852FD4F6491662319F420E030E016
:1057A0001DC067FF08C014968C9114978D7F1496C6
:1057B0008C9314976F77FD0190E0662321F086812A
:1057C000861709F416829F5F31969630B1F7CD01A6
:1057D0001496BD010E949A2B21E030E0C901089582
:1057E000CF93DF93DC01683810F0685825C0E62FAE
:1057F000F0E067FF12C0E058F04081E090E002C0A6
:10580000880F991FEA95E2F714962C911497282B8C
:1058100014962C93149760E00FC0E852FD4F6491EA
:105820006623D9F167FF08C014968C9114978260A3
:1058300014968C9314976F7716968C9116978617FB
:10584000A9F117968C911797861781F118968C916C
:105850001897861759F119968C911997861731F177
:105860001A968C911A97861709F11B968C911B97A3
:105870008617E1F0ED01E0E0F0E09E2F8E818823B5
:1058800021F4EA0FFB1F668306C09F5F31962196C5
:10589000E630F10591F7963049F481E090E01396F7
:1058A0009C938E93129720E030E007C0CD011496B0
:1058B000BD010E949A2B21E030E0C901DF91CF9118
:1058C000089580E86AE572E045E650E00E942F25E1
:1058D0000895FC0180818F5F808380E86FEB72E028
:1058E00049E150E00E942F2508955058BB27AA2770
:1058F0000ED0FCC1EDD130F0F2D120F031F49F3F59
:1059000011F41EF4BDC10EF4E095E7FBB3C1E92F1D
:10591000FED180F3BA17620773078407950718F062
:1059200071F49EF516C20EF4E0950B2EBA2FA02D41
:105930000B01B90190010C01CA01A0011124FF273C
:10594000591B99F0593F50F4503E68F11A16F04037
:10595000A22F232F342F4427585FF3CF4695379536
:105960002795A795F0405395C9F77EF41F16BA0BFB
:10597000620B730B840BBAF09150A1F0FF0FBB1FA9
:10598000661F771F881FC2F70EC0BA0F621F731FF2
:10599000841F48F4879577956795B795F7959E3F4F
:1059A00008F0B3CF9395880F08F09927EE0F9795DD
:1059B000879508958DD158F080E891E009F49EEF25
:1059C0008ED128F040E851E059F45EEF09C058C18B
:1059D000C0C1E92FE0789BD168F3092E052AC1F3F5
:1059E000261737074807590738F00E2E07F8E02525
:1059F00069F0E025E0640AC0EF6307F8009407FA55
:105A0000DB01B9019D01DC01CA01AD01EF9347D073
:105A10006DD10AD05F91552331F02BED3FE049E481
:105A200050FD49EC63CF0895DF93DD27B92FBF7791
:105A300040E85FE31616170648075B0710F4D92FF6
:105A400093D19F938F937F936F9346D2ECEAF0E0CC
:105A50001AD14CD12F913F914F915F9198D1DD2375
:105A600049F09058A2EA2AED3FE049EC5FE3D07894
:105A70005D274DDFDF913AC1D9D008F481E0089568
:105A80000CD034C12CD140F023D130F021F45F3F51
:105A900019F0F0C051115EC1F3C039D198F39923C8
:105AA000C9F35523B1F3951B550BBB27AA276217E2
:105AB0007307840738F09F5F5F4F220F331F441F27
:105AC000AA1FA9F333D00E2E3AF0E0E830D091505F
:105AD0005040E695001CCAF729D0FE2F27D0660F4C
:105AE000771F881FBB1F261737074807AB07B0E88B
:105AF00009F0BB0B802DBF01FF2793585F4F2AF0A1
:105B00009E3F510568F0B6C025C15F3FECF3983E5B
:105B1000DCF3869577956795B795F7959F5FC9F7FD
:105B2000880F911D9695879597F90895E1E0660F86
:105B3000771F881FBB1F621773078407BA0720F0FF
:105B4000621B730B840BBA0BEE1F88F7E095089568
:105B500004D06894B111FEC00895E1D088F09F5739
:105B600090F0B92F9927B751A0F0D1F0660F771FA9
:105B7000881F991F1AF0BA95C9F712C0B13081F089
:105B8000E8D0B1E00895E5C0672F782F8827B85F87
:105B900039F0B93FCCF3869577956795B395D9F7EA
:105BA0003EF490958095709561957F4F8F4F9F4FF4
:105BB0000895E89409C097FB3EF490958095709500
:105BC00061957F4F8F4F9F4F9923A9F0F92F96E949
:105BD000BB279395F695879577956795B795F111BE
:105BE000F8CFFAF4BB0F11F460FF1BC06F5F7F4F5B
:105BF0008F4F9F4F16C0882311F096E911C077236D
:105C000021F09EE8872F762F05C0662371F096E875
:105C1000862F70E060E02AF09A95660F771F881F44
:105C2000DAF7880F9695879597F90895990F0008E8
:105C3000550FAA0BE0E8FEEF16161706E807F9075E
:105C4000C0F012161306E407F50798F0621B730BF9
:105C5000840B950B39F40A2661F0232B242B252B7A
:105C600021F408950A2609F4A140A6958FEF811D1D
:105C7000811D089597F99F6780E870E060E00895BE
:105C80009FEF80EC0895DF93CF931F930F93FF92C4
:105C9000EF92DF927B018C01689405C0DA2EEF0150
:105CA00076D0FE01E894A5912591359145915591C5
:105CB000AEF3EF012CDEFE019701A801DA9479F72B
:105CC000DF90EF90FF900F911F91CF91DF9108959A
:105CD00000240A94161617061806090608950024CB
:105CE0000A9412161306140605060895092E039445
:105CF000000C11F4882352F0BB0F40F4BF2B11F4B9
:105D000060FF04C06F5F7F4F8F4F9F4F089557FD17
:105D10009058440F551F59F05F3F71F04795880F19
:105D200097FB991F61F09F3F79F0879508951216B0
:105D300013061406551FF2CF4695F1DF08C016165C
:105D400017061806991FF1CF86957105610508940D
:105D50000895E894BB2766277727CB0197F9089524
:105D600065DF08F48FEF08959B01AC0160E070E0FF
:105D700080E89FE385CE0BD0B9CFAADF28F0AFDF54
:105D800018F0952309F076CF7BCF1124E3CFBFDF46
:105D9000A0F3959FD1F3950F50E0551F629FF0013E
:105DA000729FBB27F00DB11D639FAA27F00DB11D97
:105DB000AA1F649F6627B00DA11D661F829F222720
:105DC000B00DA11D621F739FB00DA11D621F839FA7
:105DD000A00D611D221F749F3327A00D611D231F7D
:105DE000849F600D211D822F762F6A2F11249F57CB
:105DF00050408AF0E1F088234AF0EE0FFF1FBB1FEE
:105E0000661F771F881F91505040A9F79E3F51058C
:105E100070F030CF9FCF5F3FECF3983EDCF3869578
:105E200077956795B795F795E7959F5FC1F7FE2B37
:105E3000880F911D9695879597F9089511F40EF4A2
:105E40001FCF51C06CDFD0F39923D9F3CEF39F5706
:105E5000550B87FF58D056959795B0E020F4660F04
:105E6000771F881FBB1F1F930F9300249001A00171
:105E70008001F001A0E80E0F1F1F0A1E511D601BBC
:105E8000710B8009B50B48F4600F711F801DB51FA1
:105E90000E1B1F0B0A0A510907C02E0F3F1F4A1F76
:105EA0000E0F1F1F0A1E511D660F771F881FBB1F75
:105EB000A695F795E795F8F60617170708065B0706
:105EC000211D311D411D0F911F91B901842F915842
:105ED000880F9695879508959B01AC014CCFA6DE5F
:105EE000880B990B08959F3F49F0915028F48695AF
:105EF00077956795B7959F5F80389F4F880F9695E8
:105F0000879597F9089591505040660F771F881F25
:105F1000D2F70895629FD001739FF001829FE00D38
:105F2000F11D649FE00DF11D929FF00D839FF00D18
:105F3000749FF00D659FF00D9927729FB00DE11DC4
:105F4000F91F639FB00DE11DF91FBD01CF011124A1
:105F50000895AA1BBB1B51E107C0AA1FBB1FA617B0
:105F6000B70710F0A61BB70B881F991F5A95A9F702
:105F700080959095BC01CD01089597FB092E0726C9
:105F80000AD077FD04D0E5DF06D000201AF4709522
:105F900061957F4F0895F6F7909581959F4F0895ED
:105FA000A1E21A2EAA1BBB1BFD010DC0AA1FBB1F1D
:105FB000EE1FFF1FA217B307E407F50720F0A21B8F
:105FC000B30BE40BF50B661F771F881F991F1A94FC
:105FD00069F760957095809590959B01AC01BD0126
:105FE000CF01089597FB092E05260ED057FD04D04A
:105FF000D7DF0AD0001C38F4509540953095219594
:106000003F4F4F4F5F4F0895F6F7909580957095ED
:1060100061957F4F8F4F9F4F0895EE0FFF1F0590A3
:10602000F491E02D09942F923F924F925F926F92DC
:106030007F928F929F92AF92BF92CF92DF92EF9218
:10604000FF920F931F93CF93DF93CDB7DEB7CA1B99
:10605000DB0B0FB6F894DEBF0FBECDBF09942A88C4
:10606000398848885F846E847D848C849B84AA846C
:10607000B984C884DF80EE80FD800C811B81AA81F9
:10608000B981CE0FD11D0FB6F894DEBF0FBECDBFC4
:10609000ED01089513E0C4E6D3E004C0FE010E94C0
:0E60A0000F302296C636D107C9F7F894FFCF0D
:1060AE00004D656D6F7279204F4B21004D656D6F00
:1060BE007279204641494C2100436C65616E696ED0
:1060CE006720333237363820626C6F636B3A2000AC
:1060DE0045726173696E6720466C617368206368F0
:1060EE0069703A20002E00444F4E4500442564202E
:1060FE0025642025642025642025642025645820ED
:10610E002564202564004254207265736574002551
:10611E00643B2564003B004E6F20646973636F6EB1
:10612E006E656374004D656D20626C6F636B3A2013
:10613E00006E616E00696E66006F7666002E00005E
:10614E0012001300140016001700070006000400CA
:10615E001E0001000000AC426300FF0100E10000E0
:10616E000000000080008105000001010000000019
:10617E00F515C4157D1586159B15AC150000000090
:10618E002F1F0722CE1EF51EDC1E571F5B1F0000A1
:10619E0000005E210722F420252105214E2100005A
:0C61AE0000004E2B0722F02BAD2BA02B85
:00000001FF
