:107000000C9456380C9473380C9473380C94733871
:107010000C9473380C9473380C9473380C94733844
:107020000C9473380C9473380C94A23D0C94733800
:107030000C9473380C9473380C9473380C94733824
:107040000C9473380C9401390C9473380C94733885
:107050000C9473380C9473380C9473380C94733804
:107060000C9473380C9473380C9473380C947338F4
:107070000C9473380C9473380C9473380C947338E4
:107080000C9473380C9473380C9473380C947338D4
:107090000C9473380C9473380C9473380C947338C4
:1070A0000C9473380C9473380C94733811241FBEED
:1070B000CFEFDAE0DEBFCDBF11E0A0E0B1E0E2E368
:1070C000FFE702C005900D92A23AB107D9F721E07F
:1070D000A2EAB1E001C01D92A83BB207E1F70E940D
:1070E000023C0C94973F0C94003884E08093E900B4
:1070F0008091E80085FD0EC08091E8008B77809339
:10710000E8008091E80082FDF3CF8EB38111F9CFC2
:1071100080E008958091F100089593E09093E90054
:107120009091E80095FF0AC08093F1005D9884E695
:1071300090E09093A7018093A60108959091E800B4
:107140009E779093E8009091E80090FDEDCF9EB37C
:107150009111F9CF0895F89410926F001092810068
:10716000109285001092840081E085BF15BE47987B
:107170005D9A289A0C94000008958091AC0190913A
:10718000AD0101969093AD018093AC01292F97FF3B
:1071900002C02EEF291B220F281710F447980895DC
:1071A000479A089584B7877F84BF88E10FB6F89423
:1071B00080936000109260000FBE90E080E80FB6F0
:1071C000F89480936100909361000FBE81E085BFC9
:1071D00082E085BF3F9A209A559AE1E6F0E090E878
:1071E0009083108247985D9A289A109289009AEFAE
:1071F0009093880080936F0083E0809381000C94CB
:10720000843D1F920F920FB60F9211242F938F93EC
:107210009F93EF93FF9310928500109284008091CA
:10722000A6019091A701009741F001979093A701C3
:107230008093A601892B09F45D9A8091A401909115
:10724000A501009741F001979093A5018093A401B7
:10725000892B09F4289AE0E0F0E085919491019659
:1072600049F08091A2019091A30101969093A3010E
:107270008093A201FF91EF919F918F912F910F9099
:107280000FBE0F901F90189542E061EC82E00E94C3
:10729000133D42E161E883E00E94133D42E160E872
:1072A00084E00C94133D8091B001982F9F77913228
:1072B00049F59091B101903299F0913219F5813AE6
:1072C00009F58091E800877F8093E80067E070E02F
:1072D00081E091E00E94783C8091E8008B7710C0BB
:1072E000813281F48091E800877F8093E80067E035
:1072F00070E081E091E00E94D53C8091E8008E77BB
:107300008093E80008954F925F926F927F928F92E0
:107310009F92AF92BF92CF92DF92EF92FF92CF9364
:10732000DF9384E08093E9008091E80082FF5BC2F4
:10733000289884E690E09093A5018093A4010E9490
:107340007538D82F853481F48CE49DE19093A301A6
:107350008093A20107B600FCFDCFF999FECF81E131
:1073600080935700E89504C0843531F40E94753845
:107370008DE00E948D380EC28C34D1F38035C1F37C
:10738000843729F484E40E948D3880E0F2CF81367E
:1073900011F489E5EECF8134A1F40E947538C82F2D
:1073A0000E94753890E0880F991F2C2F30E0322F03
:1073B0002227330F822B932BAA2797FDA095BA2F54
:1073C000BBC1803711F483E5D4CF833551F4C8E0D5
:1073D000D1E089910E948D3821E0CF30D207C9F7E2
:1073E000D9C1863529F481E30E948D3880E3C1CF6D
:1073F000833741F487E80E948D3885E90E948D38F3
:107400008EE1B7CF8536B9F4E0E0F0E083E095E0B7
:1074100080935700E89507B600FCFDCF9093570086
:10742000E89507B600FCFDCFE058FF4FE11520E7D7
:10743000F20771F79DCF8C3659F40E94753880950C
:1074400099E0E1E0F0E0082E90935700E89590CFA6
:10745000823719F4E1E0F0E00EC0863419F4E0E080
:10746000F0E009C08E3419F4E3E0F0E004C08135A7
:1074700039F4E2E0F0E089E080935700849179CF1D
:10748000823641F489E50E948D3880E00E948D3873
:1074900080E86FCF823419F0873609F0E0C010928F
:1074A000A3011092A2010E947538D82E0E9475384F
:1074B000E82E0E947538C82F8BEB8C0F823010F0AD
:1074C0008FE357CFF12CFD2810926F00D73609F0CB
:1074D00048C081E180935700E8955701912CD1E095
:1074E000A114B10409F4B7C0C090A801D090A901BB
:1074F000E090AA01F090AB01C634C1F4E92DF0E0B0
:10750000EC29FD2984910E948D38992069F082E050
:10751000C80ED11CE11CF11CC092A801D092A90197
:10752000E092AA01F092AB019D2617C0D701C601D7
:10753000B695A795979587950E94813F0E948D38B3
:10754000E2E0CE0ED11CE11CF11CC092A801D09249
:10755000A901E092AA01F092AB01F1E0AF1AB108E3
:10756000BFCF8090A8019090A901A090AA01B090EF
:10757000AB01C63421F0C12CD12CD1E031C083E065
:10758000F40180935700E89507B600FCFDCFF3CFD8
:10759000C63471F5DD2041F14090A8015090A90159
:1075A0006090AA017090AB010E9475382C2D30E0DC
:1075B000382BF2010901D0935700E8951124F2E02D
:1075C0004F0E511C611C711C4092A8015092A901E0
:1075D0006092AA017092AB01DD2621E0E21AF10867
:1075E000E114F104A9F62AC00E947538C82EF4CF20
:1075F0000E947538682F8091A8019091A901A091EF
:10760000AA01B091AB01B695A795979587950E9471
:10761000893F4091A8015091A9016091AA01709100
:10762000AB014E5F5F4F6F4F7F4F4093A801509368
:10763000A9016093AA017093AB01CFCFC63441F486
:1076400085E0F40180935700E89507B600FCFDCF74
:107650008DE00E948D3882E080936F009BC0833460
:1076600079F4C091A801D091A9010E94753890E0E9
:1076700021E0FE010C0120935700E895112478CEFB
:10768000833609F5C090A801D090A901E090AA0125
:10769000F090AB010E947538F601E16090E021E0C6
:1076A0000C0120935700E8951124F2E0CF0ED11C75
:1076B000E11CF11CC092A801D092A901E092AA019C
:1076C000F092AB0155CE8D3661F4E091A801F091B6
:1076D000A90185E080935700E89507B600FCFDCF2F
:1076E00047CE823559F4E091A801F091A901C591E6
:1076F000D4918D2F0E948D388C2F3BCE843429F568
:107700000E947538682F8091A8019091A901A091DD
:10771000AA01B091AB01B695A795979587950E9460
:10772000893F8091A8019091A901A091AA01B091EF
:10773000AB010296A11DB11D8093A8019093A901F0
:10774000A093AA01B093AB0113CE843601F5C0908B
:10775000A801D090A901E090AA01F090AB01D70157
:10776000C601B695A795979587950E94813F0E947F
:107770008D3822E0C20ED11CE11CF11CC092A80180
:10778000D092A901E092AA01F092AB0103C08B3123
:1077900009F096CE83E08093E9009091E800809113
:1077A000E8008E778093E80095FD11C08091E80095
:1077B00080FD04C08EB38111F9CF15C08091E8001F
:1077C0008E778093E80003C08EB3882361F08091A8
:1077D000E80080FFF9CF84E08093E9008091E80021
:1077E0008B778093E800DF91CF91FF90EF90DF904F
:1077F000CF90BF90AF909F908F907F906F905F9051
:107800004F9008958091000890910108109201080E
:107810001092000884B714BE98E10FB6F8949093C4
:107820006000109260000FBE81FD0AC080FF08C09A
:10783000E0E0F0E085919491019611F00E94AB3860
:107840000E94D23878941092A3011092A2018091E4
:107850000001882381F00E9483390E94653F809156
:10786000A2019091A30181349F4110F01092000178
:107870000E94BD38ECCF8091E00081608093E000F1
:107880000E94AB3880E090E00895292F30E022304C
:10789000310539F02330310549F02130310561F4EB
:1078A00010C08EE390E022E531E01EC0882371F025
:1078B000813089F08230A1F080E090E020E030E07B
:1078C00013C082E190E020E931E00EC084E090E056
:1078D0002EE431E009C082E290E020E131E004C012
:1078E00088E190E024E331E0FA01318320830895B8
:1078F0002091B6013091B7012617370748F061157E
:10790000710539F42091E8002E772093E80001C03A
:10791000B901FC0120E061157105A1F18EB3882346
:10792000F1F18530F1F18091E80083FD3CC0809158
:10793000E80082FF06C08091E80082FF26C080E058
:1079400008958091E80080FFE6CF2091F3008091B8
:10795000F20090E0922B6115710551F0883091058D
:1079600038F421912093F100615071090196F3CF11
:1079700021E0089709F020E08091E8008E7780935D
:10798000E800C9CF2111CACFD6CF8EB3882339F0F2
:10799000853039F08091E80083FFCDCF04C082E0CC
:1079A000089583E0089581E008956115710529F433
:1079B0002091E8002B772093E8006115710531F1E3
:1079C0002EB3222361F1253061F12091E80023FDDF
:1079D00022C02091E80022FFF3CFFC01CF014091AB
:1079E000F3002091F20030E0342B232B09F3809137
:1079F000F1008193CF01615071096115710571F733
:107A0000D7CF8EB3882359F0853059F08091E800A4
:107A100080FFF7CF02C081E0089580E0089582E002
:107A2000089583E008958F708093E900EBEEF0E015
:107A3000808181608083EDEEF0E010826093EC0045
:107A400040838091EE00881F8827881F08958091C9
:107A5000B00187FD05C08091E80080FF0DC010C017
:107A60008091E80082FD04C08EB38111F9CF0895A2
:107A70008091E8008B7707C08EB38111ECCF089519
:107A80008091E8008E778093E80008950F931F930C
:107A9000CF93DF930E94953D0E949D3DC8EDD0E0BD
:107AA00088818F77888388818068888388818F7DAB
:107AB000888319BC1EBA1092AE0100EE10E0F801E6
:107AC00080818B7F808388818160888342E060E051
:107AD00080E00E94133DE1EEF0E080818E7F8083A4
:107AE000E2EEF0E080818160808380818860808325
:107AF000F80180818E7F8083888180618883DF9117
:107B0000CF911F910F910895E8EDF0E080818F7E75
:107B10008083E7EDF0E080818160808384E082BF34
:107B200081E08093AF010C94463DE8EDF0E0808168
:107B30008E7F80831092E20008951092DA001092F6
:107B4000E10008951F920F920FB60F9211242F9308
:107B50003F934F935F936F937F938F939F93AF93D5
:107B6000BF93EF93FF938091DA0080FF1DC0809157
:107B7000D80080FF19C08091DA008E7F8093DA00F0
:107B80008091D90080FF0CC080E189BD82E189BD70
:107B900009B400FEFDCF81E08EBB0E94643F04C0AB
:107BA00019BC1EBA0E94643F8091E10080FF18C09A
:107BB0008091E20080FF14C08091E2008E7F80936C
:107BC000E2008091E20080618093E2008091D80021
:107BD00080628093D80019BC85E08EBB0E94643F10
:107BE0008091E10084FF2FC08091E20084FF2BC0D0
:107BF00080E189BD82E189BD09B400FEFDCF80919D
:107C0000D8008F7D8093D8008091E1008F7E809393
:107C1000E1008091E2008F7E8093E2008091E2009B
:107C200081608093E2008091AE01882311F084E0AE
:107C300007C08091E30087FF02C083E001C081E0BC
:107C40008EBB0E94643F8091E10083FF23C080913E
:107C5000E20083FF1FC08091E100877F8093E100F5
:107C600082E08EBB1092AE018091E1008E7F809306
:107C7000E1008091E2008E7F8093E2008091E2003B
:107C800080618093E20042E060E080E00E94133D6A
:107C90000E94643FFF91EF91BF91AF919F918F91AF
:107CA0007F916F915F914F913F912F910F900FBEF8
:107CB0000F901F9018951F93CF93DF9300D0CDB7EF
:107CC000DEB7E0EBF1E08091F100819381E0E83BE9
:107CD000F807C9F70E9453398091E80083FFE0C09C
:107CE0009091B0018091B101853009F465C030F404
:107CF000813059F168F0833041F1D2C0883009F405
:107D00009FC0893009F4AFC0863009F0C9C076C081
:107D1000903881F0923809F0C3C08091B4018F701F
:107D20008093E9009091EB0095FB992790F91092D0
:107D3000E90001C090E08091E800877F8093E8002F
:107D40009093F1001092F10086C0292F2D7F09F049
:107D5000A7C0923009F0A4C09091B201911126C041
:107D60002091B4012F7009F49BC02093E9009091F9
:107D7000EB0090FF1BC0833021F48091EB00806208
:107D800013C08091EB0080618093EB0081E090E074
:107D9000022E01C0880F0A94EAF78093EA0010923D
:107DA000EA008091EB0088608093EB001092E9007C
:107DB0008091E800877F52C0911172C01091B2018A
:107DC0001F778091E3008078812B8093E30080917E
:107DD000E800877F8093E8000E94273D8091E800BB
:107DE00080FFFCCF8091E30080688093E300112343
:107DF00011F083E001C082E08EBB52C090589230F7
:107E000008F04EC0AE014F5F5F4F6091B4018091AA
:107E1000B2019091B3010E94453C009709F440C023
:107E20002091E800277F2093E800BC0189819A8196
:107E30000E94783C8091E8008B778093E80030C006
:107E4000903871F58091E800877F8093E8008091F9
:107E5000AE018093F1008091E8008E778093E80076
:107E60000E94273D1DC091111BC09091B20192301C
:107E7000B8F48091E800877F8093E8009093AE018A
:107E80000E94273D8091AE01811104C08091E300E2
:107E900087FF02C084E001C081E08EBB0E944439AC
:107EA0008091E80083FF0AC08091E800877F80937B
:107EB000E8008091EB0080628093EB000F900F90C0
:107EC000DF91CF911F9108950895CF938EB38823AA
:107ED000B1F08091E9008F709091EC0090FF02C0AA
:107EE00090E801C090E0C92FC82B1092E900809162
:107EF000E80083FD0E945B3ECF70C093E900CF9104
:107F00000895F999FECF92BD81BDF89A992780B561
:107F10000895262FF999FECF1FBA92BD81BD20BDCD
:107F20000FB6F894FA9AF99A0FBE01960895F8944C
:027F3000FFCF81
:107F320001000000000000084C5546414344430044
:107F42002203480069006E00670065004F006E0062
:107F52006500200055005300420020002000200050
:107F6200200000001803480069006E0067006500E9
:107F72004800650061006C007400680000000403A2
:107F8200090409023E0002010080320904000001D6
:107F92000202010005240010010424020405240643
:107FA2000001070582030800FF09040100020A001C
:107FB20000000705040210000507058302100005F2
:107FC2001201100102000008EB134120000102011E
:027FD2000001AC
:040000030000700089
:00000001FF
